{
    "_format": "hh-sol-artifact-1",
    "contractName": "AtomicCloak",
    "sourceName": "contracts/AtomicCloak.sol",
    "abi": [
        {
            "inputs": [
                {
                    "internalType": "address",
                    "name": "__entryPoint",
                    "type": "address"
                }
            ],
            "stateMutability": "nonpayable",
            "type": "constructor"
        },
        {
            "anonymous": false,
            "inputs": [
                {
                    "indexed": true,
                    "internalType": "address",
                    "name": "_swapID",
                    "type": "address"
                },
                {
                    "indexed": true,
                    "internalType": "uint256",
                    "name": "_secretKey",
                    "type": "uint256"
                }
            ],
            "name": "Close",
            "type": "event"
        },
        {
            "anonymous": false,
            "inputs": [
                {
                    "indexed": true,
                    "internalType": "address",
                    "name": "_swapID",
                    "type": "address"
                }
            ],
            "name": "Expire",
            "type": "event"
        },
        {
            "anonymous": false,
            "inputs": [
                {
                    "indexed": true,
                    "internalType": "address",
                    "name": "_swapID",
                    "type": "address"
                },
                {
                    "indexed": true,
                    "internalType": "address",
                    "name": "_sender",
                    "type": "address"
                },
                {
                    "indexed": true,
                    "internalType": "address",
                    "name": "_recipient",
                    "type": "address"
                }
            ],
            "name": "Open",
            "type": "event"
        },
        {
            "inputs": [
                {
                    "internalType": "address",
                    "name": "_swapID",
                    "type": "address"
                },
                {
                    "internalType": "uint256",
                    "name": "_secretKey",
                    "type": "uint256"
                }
            ],
            "name": "close",
            "outputs": [],
            "stateMutability": "payable",
            "type": "function"
        },
        {
            "inputs": [
                {
                    "internalType": "address",
                    "name": "_swapID",
                    "type": "address"
                },
                {
                    "internalType": "uint256",
                    "name": "_secretKey",
                    "type": "uint256"
                }
            ],
            "name": "closeNoVerify",
            "outputs": [],
            "stateMutability": "nonpayable",
            "type": "function"
        },
        {
            "inputs": [
                {
                    "internalType": "uint256",
                    "name": "_secretKey",
                    "type": "uint256"
                }
            ],
            "name": "commitmentFromSecret",
            "outputs": [
                {
                    "internalType": "uint256",
                    "name": "",
                    "type": "uint256"
                },
                {
                    "internalType": "uint256",
                    "name": "",
                    "type": "uint256"
                }
            ],
            "stateMutability": "pure",
            "type": "function"
        },
        {
            "inputs": [
                {
                    "internalType": "uint256",
                    "name": "_qx",
                    "type": "uint256"
                },
                {
                    "internalType": "uint256",
                    "name": "_qy",
                    "type": "uint256"
                },
                {
                    "internalType": "uint256",
                    "name": "_sharedSecret",
                    "type": "uint256"
                }
            ],
            "name": "commitmentFromSharedSecret",
            "outputs": [
                {
                    "internalType": "uint256",
                    "name": "",
                    "type": "uint256"
                },
                {
                    "internalType": "uint256",
                    "name": "",
                    "type": "uint256"
                }
            ],
            "stateMutability": "pure",
            "type": "function"
        },
        {
            "inputs": [
                {
                    "internalType": "uint256",
                    "name": "_qx",
                    "type": "uint256"
                },
                {
                    "internalType": "uint256",
                    "name": "_qy",
                    "type": "uint256"
                }
            ],
            "name": "commitmentToAddress",
            "outputs": [
                {
                    "internalType": "address",
                    "name": "",
                    "type": "address"
                }
            ],
            "stateMutability": "pure",
            "type": "function"
        },
        {
            "inputs": [],
            "name": "curveOrder",
            "outputs": [
                {
                    "internalType": "uint256",
                    "name": "",
                    "type": "uint256"
                }
            ],
            "stateMutability": "view",
            "type": "function"
        },
        {
            "inputs": [],
            "name": "entryPoint",
            "outputs": [
                {
                    "internalType": "contract IEntryPoint",
                    "name": "",
                    "type": "address"
                }
            ],
            "stateMutability": "view",
            "type": "function"
        },
        {
            "inputs": [
                {
                    "internalType": "uint256",
                    "name": "_secretKey",
                    "type": "uint256"
                }
            ],
            "name": "getHashedCommitment",
            "outputs": [
                {
                    "internalType": "address",
                    "name": "",
                    "type": "address"
                }
            ],
            "stateMutability": "pure",
            "type": "function"
        },
        {
            "inputs": [],
            "name": "getNonce",
            "outputs": [
                {
                    "internalType": "uint256",
                    "name": "",
                    "type": "uint256"
                }
            ],
            "stateMutability": "view",
            "type": "function"
        },
        {
            "inputs": [],
            "name": "gx",
            "outputs": [
                {
                    "internalType": "uint256",
                    "name": "",
                    "type": "uint256"
                }
            ],
            "stateMutability": "view",
            "type": "function"
        },
        {
            "inputs": [],
            "name": "gy",
            "outputs": [
                {
                    "internalType": "uint256",
                    "name": "",
                    "type": "uint256"
                }
            ],
            "stateMutability": "view",
            "type": "function"
        },
        {
            "inputs": [],
            "name": "gyParity",
            "outputs": [
                {
                    "internalType": "uint8",
                    "name": "",
                    "type": "uint8"
                }
            ],
            "stateMutability": "view",
            "type": "function"
        },
        {
            "inputs": [
                {
                    "internalType": "uint256",
                    "name": "_qx",
                    "type": "uint256"
                },
                {
                    "internalType": "uint256",
                    "name": "_qy",
                    "type": "uint256"
                },
                {
                    "internalType": "address payable",
                    "name": "_recipient",
                    "type": "address"
                },
                {
                    "internalType": "uint256",
                    "name": "_timelock",
                    "type": "uint256"
                },
                {
                    "internalType": "address",
                    "name": "_tokenAddress",
                    "type": "address"
                },
                {
                    "internalType": "uint256",
                    "name": "_value",
                    "type": "uint256"
                }
            ],
            "name": "openERC20",
            "outputs": [],
            "stateMutability": "payable",
            "type": "function"
        },
        {
            "inputs": [
                {
                    "internalType": "uint256",
                    "name": "_qx",
                    "type": "uint256"
                },
                {
                    "internalType": "uint256",
                    "name": "_qy",
                    "type": "uint256"
                },
                {
                    "internalType": "address payable",
                    "name": "_recipient",
                    "type": "address"
                },
                {
                    "internalType": "uint256",
                    "name": "_timelock",
                    "type": "uint256"
                }
            ],
            "name": "openETH",
            "outputs": [],
            "stateMutability": "payable",
            "type": "function"
        },
        {
            "inputs": [
                {
                    "internalType": "address",
                    "name": "_swapID",
                    "type": "address"
                }
            ],
            "name": "redeemExpiredSwap",
            "outputs": [],
            "stateMutability": "nonpayable",
            "type": "function"
        },
        {
            "inputs": [
                {
                    "internalType": "address",
                    "name": "",
                    "type": "address"
                }
            ],
            "name": "swaps",
            "outputs": [
                {
                    "internalType": "uint256",
                    "name": "timelock",
                    "type": "uint256"
                },
                {
                    "internalType": "address",
                    "name": "tokenContract",
                    "type": "address"
                },
                {
                    "internalType": "uint256",
                    "name": "value",
                    "type": "uint256"
                },
                {
                    "internalType": "address payable",
                    "name": "sender",
                    "type": "address"
                },
                {
                    "internalType": "address payable",
                    "name": "recipient",
                    "type": "address"
                },
                {
                    "internalType": "uint256",
                    "name": "fee",
                    "type": "uint256"
                }
            ],
            "stateMutability": "view",
            "type": "function"
        },
        {
            "inputs": [
                {
                    "components": [
                        {
                            "internalType": "address",
                            "name": "sender",
                            "type": "address"
                        },
                        {
                            "internalType": "uint256",
                            "name": "nonce",
                            "type": "uint256"
                        },
                        {
                            "internalType": "bytes",
                            "name": "initCode",
                            "type": "bytes"
                        },
                        {
                            "internalType": "bytes",
                            "name": "callData",
                            "type": "bytes"
                        },
                        {
                            "internalType": "uint256",
                            "name": "callGasLimit",
                            "type": "uint256"
                        },
                        {
                            "internalType": "uint256",
                            "name": "verificationGasLimit",
                            "type": "uint256"
                        },
                        {
                            "internalType": "uint256",
                            "name": "preVerificationGas",
                            "type": "uint256"
                        },
                        {
                            "internalType": "uint256",
                            "name": "maxFeePerGas",
                            "type": "uint256"
                        },
                        {
                            "internalType": "uint256",
                            "name": "maxPriorityFeePerGas",
                            "type": "uint256"
                        },
                        {
                            "internalType": "bytes",
                            "name": "paymasterAndData",
                            "type": "bytes"
                        },
                        {
                            "internalType": "bytes",
                            "name": "signature",
                            "type": "bytes"
                        }
                    ],
                    "internalType": "struct UserOperation",
                    "name": "userOp",
                    "type": "tuple"
                }
            ],
            "name": "validateSignature_test",
            "outputs": [],
            "stateMutability": "view",
            "type": "function"
        },
        {
            "inputs": [
                {
                    "components": [
                        {
                            "internalType": "address",
                            "name": "sender",
                            "type": "address"
                        },
                        {
                            "internalType": "uint256",
                            "name": "nonce",
                            "type": "uint256"
                        },
                        {
                            "internalType": "bytes",
                            "name": "initCode",
                            "type": "bytes"
                        },
                        {
                            "internalType": "bytes",
                            "name": "callData",
                            "type": "bytes"
                        },
                        {
                            "internalType": "uint256",
                            "name": "callGasLimit",
                            "type": "uint256"
                        },
                        {
                            "internalType": "uint256",
                            "name": "verificationGasLimit",
                            "type": "uint256"
                        },
                        {
                            "internalType": "uint256",
                            "name": "preVerificationGas",
                            "type": "uint256"
                        },
                        {
                            "internalType": "uint256",
                            "name": "maxFeePerGas",
                            "type": "uint256"
                        },
                        {
                            "internalType": "uint256",
                            "name": "maxPriorityFeePerGas",
                            "type": "uint256"
                        },
                        {
                            "internalType": "bytes",
                            "name": "paymasterAndData",
                            "type": "bytes"
                        },
                        {
                            "internalType": "bytes",
                            "name": "signature",
                            "type": "bytes"
                        }
                    ],
                    "internalType": "struct UserOperation",
                    "name": "userOp",
                    "type": "tuple"
                },
                {
                    "internalType": "bytes32",
                    "name": "userOpHash",
                    "type": "bytes32"
                },
                {
                    "internalType": "uint256",
                    "name": "missingAccountFunds",
                    "type": "uint256"
                }
            ],
            "name": "validateUserOp",
            "outputs": [
                {
                    "internalType": "uint256",
                    "name": "validationData",
                    "type": "uint256"
                }
            ],
            "stateMutability": "nonpayable",
            "type": "function"
        },
        {
            "stateMutability": "payable",
            "type": "receive"
        }
    ],
    "bytecode": "0x610160604052600073ffffffffffffffffffffffffffffffffffffffff1660a09073ffffffffffffffffffffffffffffffffffffffff1681525063685da72760e01b7bffffffffffffffffffffffffffffffffffffffffffffffffffffffff191660c0907bffffffffffffffffffffffffffffffffffffffffffffffffffffffff19168152507fa6ecb3f599964fe04c72e486a8f90172493c21f4185f1ab9a7fe05659480c54860e0908152507fdf67fd3f4255826c234a5262adc70e14a6d42f13ee55b65e885e666e1dd5d3f561010090815250601c60ff166101209060ff168152507ffffffffffffffffffffffffffffffffebaaedce6af48a03bbfd25e8cd0364141610140908152503480156200011857600080fd5b5060405162003f7438038062003f7483398181016040528101906200013e9190620001e3565b8073ffffffffffffffffffffffffffffffffffffffff1660808173ffffffffffffffffffffffffffffffffffffffff16815250505062000215565b600080fd5b600073ffffffffffffffffffffffffffffffffffffffff82169050919050565b6000620001ab826200017e565b9050919050565b620001bd816200019e565b8114620001c957600080fd5b50565b600081519050620001dd81620001b2565b92915050565b600060208284031215620001fc57620001fb62000179565b5b60006200020c84828501620001cc565b91505092915050565b60805160a05160c05160e051610100516101205161014051613cb0620002c4600039600081816105450152611de1015260008181611bf70152611d9c0152600081816105210152611c5901526000818161046101528181611c3801528181611dbd0152611e1001526000818161060201526125e901526000818161089301528181610c4a01528181611016015281816119c301528181612174015261281d01526000611ce40152613cb06000f3fe60806040526004361061010d5760003560e01c8063685da727116100955780639fc4c830116100645780639fc4c83014610372578063b0d691fe146103b0578063d087d288146103db578063df87326414610406578063e49280cb1461044357610114565b8063685da727146102c5578063888396d1146102ee5780638b5c77f91461032b5780639840f5441461034757610114565b806338f05f60116100dc57806338f05f60146101dc5780633a871cdd1461020557806358f6956b1461024257806365f1baf31461026b578063683dfb81146102a957610114565b806306c91ce3146101195780631688cf54146101445780632d58c9a214610186578063307c0839146101b157610114565b3661011457005b600080fd5b34801561012557600080fd5b5061012e61045f565b60405161013b919061298e565b60405180910390f35b34801561015057600080fd5b5061016b60048036038101906101669190612a11565b610483565b60405161017d96959493929190612a6e565b60405180910390f35b34801561019257600080fd5b5061019b61051f565b6040516101a8919061298e565b60405180910390f35b3480156101bd57600080fd5b506101c6610543565b6040516101d3919061298e565b60405180910390f35b3480156101e857600080fd5b5061020360048036038101906101fe9190612af4565b610567565b005b34801561021157600080fd5b5061022c60048036038101906102279190612b9f565b6109a0565b604051610239919061298e565b60405180910390f35b34801561024e57600080fd5b5061026960048036038101906102649190612a11565b6109d3565b005b34801561027757600080fd5b50610292600480360381019061028d9190612c0e565b610ea2565b6040516102a0929190612c61565b60405180910390f35b6102c360048036038101906102be9190612cb6565b610f40565b005b3480156102d157600080fd5b506102ec60048036038101906102e79190612d43565b6114d4565b005b3480156102fa57600080fd5b5061031560048036038101906103109190612d83565b611841565b6040516103229190612dc3565b60405180910390f35b61034560048036038101906103409190612dde565b611892565b005b34801561035357600080fd5b5061035c611bf5565b6040516103699190612e61565b60405180910390f35b34801561037e57600080fd5b5061039960048036038101906103949190612e7c565b611c19565b6040516103a7929190612c61565b60405180910390f35b3480156103bc57600080fd5b506103c5611ce0565b6040516103d29190612f08565b60405180910390f35b3480156103e757600080fd5b506103f0611d08565b6040516103fd919061298e565b60405180910390f35b34801561041257600080fd5b5061042d60048036038101906104289190612e7c565b611d93565b60405161043a9190612dc3565b60405180910390f35b61045d60048036038101906104589190612d43565b611e88565b005b7f000000000000000000000000000000000000000000000000000000000000000081565b60006020528060005260406000206000915090508060000154908060010160009054906101000a900473ffffffffffffffffffffffffffffffffffffffff16908060020154908060030160009054906101000a900473ffffffffffffffffffffffffffffffffffffffff16908060040160009054906101000a900473ffffffffffffffffffffffffffffffffffffffff16908060050154905086565b7f000000000000000000000000000000000000000000000000000000000000000081565b7f000000000000000000000000000000000000000000000000000000000000000081565b60008180606001906105799190612f32565b60009060049261058b93929190612f9f565b90610596919061301e565b905060008280606001906105aa9190612f32565b6004906024926105bc93929190612f9f565b906105c7919061307d565b60001c905060008380606001906105de9190612f32565b6024906044926105f093929190612f9f565b906105fb919061307d565b60001c90507f00000000000000000000000000000000000000000000000000000000000000007bffffffffffffffffffffffffffffffffffffffffffffffffffffffff1916837bffffffffffffffffffffffffffffffffffffffffffffffffffffffff1916146106a0576040517f08c379a000000000000000000000000000000000000000000000000000000000815260040161069790613139565b60405180910390fd5b60008060008473ffffffffffffffffffffffffffffffffffffffff1673ffffffffffffffffffffffffffffffffffffffff1681526020019081526020016000206040518060c0016040529081600082015481526020016001820160009054906101000a900473ffffffffffffffffffffffffffffffffffffffff1673ffffffffffffffffffffffffffffffffffffffff1673ffffffffffffffffffffffffffffffffffffffff168152602001600282015481526020016003820160009054906101000a900473ffffffffffffffffffffffffffffffffffffffff1673ffffffffffffffffffffffffffffffffffffffff1673ffffffffffffffffffffffffffffffffffffffff1681526020016004820160009054906101000a900473ffffffffffffffffffffffffffffffffffffffff1673ffffffffffffffffffffffffffffffffffffffff1673ffffffffffffffffffffffffffffffffffffffff168152602001600582015481525050905060008060008573ffffffffffffffffffffffffffffffffffffffff1673ffffffffffffffffffffffffffffffffffffffff1681526020019081526020016000206002015411610891576040517f08c379a0000000000000000000000000000000000000000000000000000000008152600401610888906131a5565b60405180910390fd5b7f000000000000000000000000000000000000000000000000000000000000000073ffffffffffffffffffffffffffffffffffffffff16816020015173ffffffffffffffffffffffffffffffffffffffff1614610923576040517f08c379a000000000000000000000000000000000000000000000000000000000815260040161091a90613211565b60405180910390fd5b8273ffffffffffffffffffffffffffffffffffffffff1661094383611d93565b73ffffffffffffffffffffffffffffffffffffffff1614610999576040517f08c379a00000000000000000000000000000000000000000000000000000000081526004016109909061327d565b60405180910390fd5b5050505050565b60006109aa6124d6565b6109b4848461254d565b90506109c384602001356128d6565b6109cc826128d9565b9392505050565b60008060008373ffffffffffffffffffffffffffffffffffffffff1673ffffffffffffffffffffffffffffffffffffffff1681526020019081526020016000206002015411610a57576040517f08c379a0000000000000000000000000000000000000000000000000000000008152600401610a4e906131a5565b60405180910390fd5b426000808373ffffffffffffffffffffffffffffffffffffffff1673ffffffffffffffffffffffffffffffffffffffff168152602001908152602001600020600001541115610adb576040517f08c379a0000000000000000000000000000000000000000000000000000000008152600401610ad2906132e9565b60405180910390fd5b60008060008373ffffffffffffffffffffffffffffffffffffffff1673ffffffffffffffffffffffffffffffffffffffff1681526020019081526020016000206040518060c0016040529081600082015481526020016001820160009054906101000a900473ffffffffffffffffffffffffffffffffffffffff1673ffffffffffffffffffffffffffffffffffffffff1673ffffffffffffffffffffffffffffffffffffffff168152602001600282015481526020016003820160009054906101000a900473ffffffffffffffffffffffffffffffffffffffff1673ffffffffffffffffffffffffffffffffffffffff1673ffffffffffffffffffffffffffffffffffffffff1681526020016004820160009054906101000a900473ffffffffffffffffffffffffffffffffffffffff1673ffffffffffffffffffffffffffffffffffffffff1673ffffffffffffffffffffffffffffffffffffffff16815260200160058201548152505090507f000000000000000000000000000000000000000000000000000000000000000073ffffffffffffffffffffffffffffffffffffffff16816020015173ffffffffffffffffffffffffffffffffffffffff1603610cf357806060015173ffffffffffffffffffffffffffffffffffffffff166108fc82604001519081150290604051600060405180830381858888f19350505050158015610ced573d6000803e3d6000fd5b50610d8d565b6000816020015190508073ffffffffffffffffffffffffffffffffffffffff1663a9059cbb836060015184604001516040518363ffffffff1660e01b8152600401610d3f92919061332a565b6020604051808303816000875af1158015610d5e573d6000803e3d6000fd5b505050506040513d601f19601f82011682018060405250810190610d82919061338b565b610d8b57600080fd5b505b8173ffffffffffffffffffffffffffffffffffffffff167f0c36ba37282164e86020ce85f921bc1614b495edb4d3925de9b5b55f2c1bce4a60405160405180910390a26000808373ffffffffffffffffffffffffffffffffffffffff1673ffffffffffffffffffffffffffffffffffffffff1681526020019081526020016000206000808201600090556001820160006101000a81549073ffffffffffffffffffffffffffffffffffffffff021916905560028201600090556003820160006101000a81549073ffffffffffffffffffffffffffffffffffffffff02191690556004820160006101000a81549073ffffffffffffffffffffffffffffffffffffffff0219169055600582016000905550505050565b600080600080610eb185611c19565b9150915073__$a7f515f87d6f6cd1e35111d553ac002116$__63bb8c256a888885856040518563ffffffff1660e01b8152600401610ef294939291906133c7565b6040805180830381865af4158015610f0e573d6000803e3d6000fd5b505050506040513d601f19601f82011682018060405250810190610f329190613421565b935093505050935093915050565b6000610f4c8787611841565b905060008060008373ffffffffffffffffffffffffffffffffffffffff1673ffffffffffffffffffffffffffffffffffffffff1681526020019081526020016000206002015414610fd2576040517f08c379a0000000000000000000000000000000000000000000000000000000008152600401610fc9906134ad565b60405180910390fd5b428411611014576040517f08c379a000000000000000000000000000000000000000000000000000000000815260040161100b9061353f565b60405180910390fd5b7f000000000000000000000000000000000000000000000000000000000000000073ffffffffffffffffffffffffffffffffffffffff168373ffffffffffffffffffffffffffffffffffffffff16036110a2576040517f08c379a0000000000000000000000000000000000000000000000000000000008152600401611099906135d1565b60405180910390fd5b600034146110e5576040517f08c379a00000000000000000000000000000000000000000000000000000000081526004016110dc90613663565b60405180910390fd5b60008211611128576040517f08c379a000000000000000000000000000000000000000000000000000000000815260040161111f906136cf565b60405180910390fd5b6000839050828173ffffffffffffffffffffffffffffffffffffffff1663dd62ed3e33306040518363ffffffff1660e01b81526004016111699291906136ef565b602060405180830381865afa158015611186573d6000803e3d6000fd5b505050506040513d601f19601f820116820180604052508101906111aa9190613718565b10156111eb576040517f08c379a00000000000000000000000000000000000000000000000000000000081526004016111e290613791565b60405180910390fd5b8073ffffffffffffffffffffffffffffffffffffffff166323b872dd3330866040518463ffffffff1660e01b8152600401611228939291906137b1565b6020604051808303816000875af1158015611247573d6000803e3d6000fd5b505050506040513d601f19601f8201168201806040525081019061126b919061338b565b6112aa576040517f08c379a00000000000000000000000000000000000000000000000000000000081526004016112a190613834565b60405180910390fd5b60006040518060c001604052808781526020018673ffffffffffffffffffffffffffffffffffffffff1681526020018581526020013373ffffffffffffffffffffffffffffffffffffffff1681526020018873ffffffffffffffffffffffffffffffffffffffff1681526020016509184e72a0008152509050806000808573ffffffffffffffffffffffffffffffffffffffff1673ffffffffffffffffffffffffffffffffffffffff1681526020019081526020016000206000820151816000015560208201518160010160006101000a81548173ffffffffffffffffffffffffffffffffffffffff021916908373ffffffffffffffffffffffffffffffffffffffff1602179055506040820151816002015560608201518160030160006101000a81548173ffffffffffffffffffffffffffffffffffffffff021916908373ffffffffffffffffffffffffffffffffffffffff16021790555060808201518160040160006101000a81548173ffffffffffffffffffffffffffffffffffffffff021916908373ffffffffffffffffffffffffffffffffffffffff16021790555060a082015181600501559050508673ffffffffffffffffffffffffffffffffffffffff163373ffffffffffffffffffffffffffffffffffffffff168473ffffffffffffffffffffffffffffffffffffffff167f0fd721862391d6a2d7f510b77eeb0c6becf9e25a100fb8d3902432647aade2dd60405160405180910390a4505050505050505050565b426000808473ffffffffffffffffffffffffffffffffffffffff1673ffffffffffffffffffffffffffffffffffffffff1681526020019081526020016000206000015411611557576040517f08c379a000000000000000000000000000000000000000000000000000000000815260040161154e906138a0565b60405180910390fd5b61155f6124d6565b60008060008473ffffffffffffffffffffffffffffffffffffffff1673ffffffffffffffffffffffffffffffffffffffff1681526020019081526020016000206040518060c0016040529081600082015481526020016001820160009054906101000a900473ffffffffffffffffffffffffffffffffffffffff1673ffffffffffffffffffffffffffffffffffffffff1673ffffffffffffffffffffffffffffffffffffffff168152602001600282015481526020016003820160009054906101000a900473ffffffffffffffffffffffffffffffffffffffff1673ffffffffffffffffffffffffffffffffffffffff1673ffffffffffffffffffffffffffffffffffffffff1681526020016004820160009054906101000a900473ffffffffffffffffffffffffffffffffffffffff1673ffffffffffffffffffffffffffffffffffffffff1673ffffffffffffffffffffffffffffffffffffffff1681526020016005820154815250509050806080015173ffffffffffffffffffffffffffffffffffffffff166108fc8260a0015183604001516116fe91906138ef565b9081150290604051600060405180830381858888f19350505050158015611729573d6000803e3d6000fd5b50818373ffffffffffffffffffffffffffffffffffffffff167f684222b0069d4a2e5e0d986611cc5182d543904c4e4264bf770d4e51faefc82260405160405180910390a36000808473ffffffffffffffffffffffffffffffffffffffff1673ffffffffffffffffffffffffffffffffffffffff1681526020019081526020016000206000808201600090556001820160006101000a81549073ffffffffffffffffffffffffffffffffffffffff021916905560028201600090556003820160006101000a81549073ffffffffffffffffffffffffffffffffffffffff02191690556004820160006101000a81549073ffffffffffffffffffffffffffffffffffffffff021916905560058201600090555050505050565b60008073ffffffffffffffffffffffffffffffffffffffff848460405160200161186c929190613944565b6040516020818303038152906040528051906020012060001c1690508091505092915050565b600061189e8585611841565b905060008060008373ffffffffffffffffffffffffffffffffffffffff1673ffffffffffffffffffffffffffffffffffffffff1681526020019081526020016000206002015414611924576040517f08c379a000000000000000000000000000000000000000000000000000000000815260040161191b906134ad565b60405180910390fd5b428211611966576040517f08c379a000000000000000000000000000000000000000000000000000000000815260040161195d9061353f565b60405180910390fd5b6509184e72a00034116119ae576040517f08c379a00000000000000000000000000000000000000000000000000000000081526004016119a5906139bc565b60405180910390fd5b60006040518060c001604052808481526020017f000000000000000000000000000000000000000000000000000000000000000073ffffffffffffffffffffffffffffffffffffffff1681526020013481526020013373ffffffffffffffffffffffffffffffffffffffff1681526020018573ffffffffffffffffffffffffffffffffffffffff1681526020016509184e72a0008152509050806000808473ffffffffffffffffffffffffffffffffffffffff1673ffffffffffffffffffffffffffffffffffffffff1681526020019081526020016000206000820151816000015560208201518160010160006101000a81548173ffffffffffffffffffffffffffffffffffffffff021916908373ffffffffffffffffffffffffffffffffffffffff1602179055506040820151816002015560608201518160030160006101000a81548173ffffffffffffffffffffffffffffffffffffffff021916908373ffffffffffffffffffffffffffffffffffffffff16021790555060808201518160040160006101000a81548173ffffffffffffffffffffffffffffffffffffffff021916908373ffffffffffffffffffffffffffffffffffffffff16021790555060a082015181600501559050508373ffffffffffffffffffffffffffffffffffffffff163373ffffffffffffffffffffffffffffffffffffffff168373ffffffffffffffffffffffffffffffffffffffff167f0fd721862391d6a2d7f510b77eeb0c6becf9e25a100fb8d3902432647aade2dd60405160405180910390a4505050505050565b7f000000000000000000000000000000000000000000000000000000000000000081565b60008073__$a7f515f87d6f6cd1e35111d553ac002116$__638081a1e77f00000000000000000000000000000000000000000000000000000000000000007f0000000000000000000000000000000000000000000000000000000000000000866040518463ffffffff1660e01b8152600401611c97939291906139dc565b6040805180830381865af4158015611cb3573d6000803e3d6000fd5b505050506040513d601f19601f82011682018060405250810190611cd79190613421565b91509150915091565b60007f0000000000000000000000000000000000000000000000000000000000000000905090565b6000611d12611ce0565b73ffffffffffffffffffffffffffffffffffffffff166335567e1a3060006040518363ffffffff1660e01b8152600401611d4d929190613a72565b602060405180830381865afa158015611d6a573d6000803e3d6000fd5b505050506040513d601f19601f82011682018060405250810190611d8e9190613718565b905090565b600080600160007f00000000000000000000000000000000000000000000000000000000000000007f000000000000000000000000000000000000000000000000000000000000000060001b7f000000000000000000000000000000000000000000000000000000000000000080611e0e57611e0d613a9b565b5b7f0000000000000000000000000000000000000000000000000000000000000000880960001b60405160008152602001604052604051611e519493929190613b17565b6020604051602081039080840390855afa158015611e73573d6000803e3d6000fd5b50505060206040510351905080915050919050565b60008060008473ffffffffffffffffffffffffffffffffffffffff1673ffffffffffffffffffffffffffffffffffffffff1681526020019081526020016000206002015411611f0c576040517f08c379a0000000000000000000000000000000000000000000000000000000008152600401611f03906131a5565b60405180910390fd5b426000808473ffffffffffffffffffffffffffffffffffffffff1673ffffffffffffffffffffffffffffffffffffffff1681526020019081526020016000206000015411611f8f576040517f08c379a0000000000000000000000000000000000000000000000000000000008152600401611f86906138a0565b60405180910390fd5b8173ffffffffffffffffffffffffffffffffffffffff16611faf82611d93565b73ffffffffffffffffffffffffffffffffffffffff1614612005576040517f08c379a0000000000000000000000000000000000000000000000000000000008152600401611ffc9061327d565b60405180910390fd5b60008060008473ffffffffffffffffffffffffffffffffffffffff1673ffffffffffffffffffffffffffffffffffffffff1681526020019081526020016000206040518060c0016040529081600082015481526020016001820160009054906101000a900473ffffffffffffffffffffffffffffffffffffffff1673ffffffffffffffffffffffffffffffffffffffff1673ffffffffffffffffffffffffffffffffffffffff168152602001600282015481526020016003820160009054906101000a900473ffffffffffffffffffffffffffffffffffffffff1673ffffffffffffffffffffffffffffffffffffffff1673ffffffffffffffffffffffffffffffffffffffff1681526020016004820160009054906101000a900473ffffffffffffffffffffffffffffffffffffffff1673ffffffffffffffffffffffffffffffffffffffff1673ffffffffffffffffffffffffffffffffffffffff16815260200160058201548152505090507f000000000000000000000000000000000000000000000000000000000000000073ffffffffffffffffffffffffffffffffffffffff16816020015173ffffffffffffffffffffffffffffffffffffffff160361228957806080015173ffffffffffffffffffffffffffffffffffffffff166108fc8260a0015183604001516121fb91906138ef565b9081150290604051600060405180830381858888f19350505050158015612226573d6000803e3d6000fd5b5060008160a00151111561228457806060015173ffffffffffffffffffffffffffffffffffffffff166108fc8260a001519081150290604051600060405180830381858888f19350505050158015612282573d6000803e3d6000fd5b505b6123bf565b8060a001513410156122d0576040517f08c379a00000000000000000000000000000000000000000000000000000000081526004016122c790613ba8565b60405180910390fd5b6000816020015190508073ffffffffffffffffffffffffffffffffffffffff1663a9059cbb836080015184604001516040518363ffffffff1660e01b815260040161231c92919061332a565b6020604051808303816000875af115801561233b573d6000803e3d6000fd5b505050506040513d601f19601f8201168201806040525081019061235f919061338b565b61236857600080fd5b60003411156123bd57816060015173ffffffffffffffffffffffffffffffffffffffff166108fc349081150290604051600060405180830381858888f193505050501580156123bb573d6000803e3d6000fd5b505b505b818373ffffffffffffffffffffffffffffffffffffffff167f684222b0069d4a2e5e0d986611cc5182d543904c4e4264bf770d4e51faefc82260405160405180910390a36000808473ffffffffffffffffffffffffffffffffffffffff1673ffffffffffffffffffffffffffffffffffffffff1681526020019081526020016000206000808201600090556001820160006101000a81549073ffffffffffffffffffffffffffffffffffffffff021916905560028201600090556003820160006101000a81549073ffffffffffffffffffffffffffffffffffffffff02191690556004820160006101000a81549073ffffffffffffffffffffffffffffffffffffffff021916905560058201600090555050505050565b6124de611ce0565b73ffffffffffffffffffffffffffffffffffffffff163373ffffffffffffffffffffffffffffffffffffffff161461254b576040517f08c379a000000000000000000000000000000000000000000000000000000000815260040161254290613c14565b60405180910390fd5b565b6000808380606001906125609190612f32565b60009060049261257293929190612f9f565b9061257d919061301e565b905060008480606001906125919190612f32565b6004906024926125a393929190612f9f565b906125ae919061307d565b60001c905060008580606001906125c59190612f32565b6024906044926125d793929190612f9f565b906125e2919061307d565b60001c90507f00000000000000000000000000000000000000000000000000000000000000007bffffffffffffffffffffffffffffffffffffffffffffffffffffffff1916837bffffffffffffffffffffffffffffffffffffffffffffffffffffffff19161461265857600193505050506128d0565b60008060008473ffffffffffffffffffffffffffffffffffffffff1673ffffffffffffffffffffffffffffffffffffffff1681526020019081526020016000206040518060c0016040529081600082015481526020016001820160009054906101000a900473ffffffffffffffffffffffffffffffffffffffff1673ffffffffffffffffffffffffffffffffffffffff1673ffffffffffffffffffffffffffffffffffffffff168152602001600282015481526020016003820160009054906101000a900473ffffffffffffffffffffffffffffffffffffffff1673ffffffffffffffffffffffffffffffffffffffff1673ffffffffffffffffffffffffffffffffffffffff1681526020016004820160009054906101000a900473ffffffffffffffffffffffffffffffffffffffff1673ffffffffffffffffffffffffffffffffffffffff1673ffffffffffffffffffffffffffffffffffffffff168152602001600582015481525050905060008060008573ffffffffffffffffffffffffffffffffffffffff1673ffffffffffffffffffffffffffffffffffffffff168152602001908152602001600020600201540361281b5760019450505050506128d0565b7f000000000000000000000000000000000000000000000000000000000000000073ffffffffffffffffffffffffffffffffffffffff16816020015173ffffffffffffffffffffffffffffffffffffffff161461287f5760019450505050506128d0565b8273ffffffffffffffffffffffffffffffffffffffff1661289f83611d93565b73ffffffffffffffffffffffffffffffffffffffff16146128c75760019450505050506128d0565b60009450505050505b92915050565b50565b600081146129725760003373ffffffffffffffffffffffffffffffffffffffff16827fffffffffffffffffffffffffffffffffffffffffffffffffffffffffffffffff9060405161292990613c65565b600060405180830381858888f193505050503d8060008114612967576040519150601f19603f3d011682016040523d82523d6000602084013e61296c565b606091505b50509050505b50565b6000819050919050565b61298881612975565b82525050565b60006020820190506129a3600083018461297f565b92915050565b600080fd5b600080fd5b600073ffffffffffffffffffffffffffffffffffffffff82169050919050565b60006129de826129b3565b9050919050565b6129ee816129d3565b81146129f957600080fd5b50565b600081359050612a0b816129e5565b92915050565b600060208284031215612a2757612a266129a9565b5b6000612a35848285016129fc565b91505092915050565b612a47816129d3565b82525050565b6000612a58826129b3565b9050919050565b612a6881612a4d565b82525050565b600060c082019050612a83600083018961297f565b612a906020830188612a3e565b612a9d604083018761297f565b612aaa6060830186612a5f565b612ab76080830185612a5f565b612ac460a083018461297f565b979650505050505050565b600080fd5b60006101608284031215612aeb57612aea612acf565b5b81905092915050565b600060208284031215612b0a57612b096129a9565b5b600082013567ffffffffffffffff811115612b2857612b276129ae565b5b612b3484828501612ad4565b91505092915050565b6000819050919050565b612b5081612b3d565b8114612b5b57600080fd5b50565b600081359050612b6d81612b47565b92915050565b612b7c81612975565b8114612b8757600080fd5b50565b600081359050612b9981612b73565b92915050565b600080600060608486031215612bb857612bb76129a9565b5b600084013567ffffffffffffffff811115612bd657612bd56129ae565b5b612be286828701612ad4565b9350506020612bf386828701612b5e565b9250506040612c0486828701612b8a565b9150509250925092565b600080600060608486031215612c2757612c266129a9565b5b6000612c3586828701612b8a565b9350506020612c4686828701612b8a565b9250506040612c5786828701612b8a565b9150509250925092565b6000604082019050612c76600083018561297f565b612c83602083018461297f565b9392505050565b612c9381612a4d565b8114612c9e57600080fd5b50565b600081359050612cb081612c8a565b92915050565b60008060008060008060c08789031215612cd357612cd26129a9565b5b6000612ce189828a01612b8a565b9650506020612cf289828a01612b8a565b9550506040612d0389828a01612ca1565b9450506060612d1489828a01612b8a565b9350506080612d2589828a016129fc565b92505060a0612d3689828a01612b8a565b9150509295509295509295565b60008060408385031215612d5a57612d596129a9565b5b6000612d68858286016129fc565b9250506020612d7985828601612b8a565b9150509250929050565b60008060408385031215612d9a57612d996129a9565b5b6000612da885828601612b8a565b9250506020612db985828601612b8a565b9150509250929050565b6000602082019050612dd86000830184612a3e565b92915050565b60008060008060808587031215612df857612df76129a9565b5b6000612e0687828801612b8a565b9450506020612e1787828801612b8a565b9350506040612e2887828801612ca1565b9250506060612e3987828801612b8a565b91505092959194509250565b600060ff82169050919050565b612e5b81612e45565b82525050565b6000602082019050612e766000830184612e52565b92915050565b600060208284031215612e9257612e916129a9565b5b6000612ea084828501612b8a565b91505092915050565b6000819050919050565b6000612ece612ec9612ec4846129b3565b612ea9565b6129b3565b9050919050565b6000612ee082612eb3565b9050919050565b6000612ef282612ed5565b9050919050565b612f0281612ee7565b82525050565b6000602082019050612f1d6000830184612ef9565b92915050565b600080fd5b600080fd5b600080fd5b60008083356001602003843603038112612f4f57612f4e612f23565b5b80840192508235915067ffffffffffffffff821115612f7157612f70612f28565b5b602083019250600182023603831315612f8d57612f8c612f2d565b5b509250929050565b600080fd5b600080fd5b60008085851115612fb357612fb2612f95565b5b83861115612fc457612fc3612f9a565b5b6001850283019150848603905094509492505050565b600082905092915050565b60007fffffffff0000000000000000000000000000000000000000000000000000000082169050919050565b600082821b905092915050565b600061302a8383612fda565b826130358135612fe5565b92506004821015613075576130707fffffffff0000000000000000000000000000000000000000000000000000000083600403600802613011565b831692505b505092915050565b60006130898383612fda565b826130948135612b3d565b925060208210156130d4576130cf7fffffffffffffffffffffffffffffffffffffffffffffffffffffffffffffffff83602003600802613011565b831692505b505092915050565b600082825260208201905092915050565b7f496e76616c69642073656c6563746f722e000000000000000000000000000000600082015250565b60006131236011836130dc565b915061312e826130ed565b602082019050919050565b6000602082019050818103600083015261315281613116565b9050919050565b7f5377617020686173206e6f74206265656e206f70656e65642e00000000000000600082015250565b600061318f6019836130dc565b915061319a82613159565b602082019050919050565b600060208201905081810360008301526131be81613182565b9050919050565b7f546f6b656e20636f6e7472616374206973206e6f74204554482e000000000000600082015250565b60006131fb601a836130dc565b9150613206826131c5565b602082019050919050565b6000602082019050818103600083015261322a816131ee565b9050919050565b7f566572696669636174696f6e206661696c65642e000000000000000000000000600082015250565b60006132676014836130dc565b915061327282613231565b602082019050919050565b600060208201905081810360008301526132968161325a565b9050919050565b7f5377617020686173206e6f7420657870697265642e0000000000000000000000600082015250565b60006132d36015836130dc565b91506132de8261329d565b602082019050919050565b60006020820190508181036000830152613302816132c6565b9050919050565b600061331482612ed5565b9050919050565b61332481613309565b82525050565b600060408201905061333f600083018561331b565b61334c602083018461297f565b9392505050565b60008115159050919050565b61336881613353565b811461337357600080fd5b50565b6000815190506133858161335f565b92915050565b6000602082840312156133a1576133a06129a9565b5b60006133af84828501613376565b91505092915050565b6133c181612975565b82525050565b60006080820190506133dc60008301876133b8565b6133e960208301866133b8565b6133f660408301856133b8565b61340360608301846133b8565b95945050505050565b60008151905061341b81612b73565b92915050565b60008060408385031215613438576134376129a9565b5b60006134468582860161340c565b92505060206134578582860161340c565b9150509250929050565b7f5377617020686173206265656e20616c7265616479206f70656e65642e000000600082015250565b6000613497601d836130dc565b91506134a282613461565b602082019050919050565b600060208201905081810360008301526134c68161348a565b9050919050565b7f54696d656c6f636b2076616c7565206d75737420626520696e2074686520667560008201527f747572652e000000000000000000000000000000000000000000000000000000602082015250565b60006135296025836130dc565b9150613534826134cd565b604082019050919050565b600060208201905081810360008301526135588161351c565b9050919050565b7f5468652061646472657373206973206e6f7420612076616c696420455243323060008201527f20746f6b656e2e00000000000000000000000000000000000000000000000000602082015250565b60006135bb6027836130dc565b91506135c68261355f565b604082019050919050565b600060208201905081810360008301526135ea816135ae565b9050919050565b7f43616e6e6f742073656e6420455448207768656e207377617070696e6720616e60008201527f20455243323020746f6b656e2e00000000000000000000000000000000000000602082015250565b600061364d602d836130dc565b9150613658826135f1565b604082019050919050565b6000602082019050818103600083015261367c81613640565b9050919050565b7f56616c7565206d757374206265206c6172676572207468616e20302e00000000600082015250565b60006136b9601c836130dc565b91506136c482613683565b602082019050919050565b600060208201905081810360008301526136e8816136ac565b9050919050565b60006040820190506137046000830185612a3e565b6137116020830184612a3e565b9392505050565b60006020828403121561372e5761372d6129a9565b5b600061373c8482850161340c565b91505092915050565b7f4e6f7420656e6f7567682062616c616e63652e00000000000000000000000000600082015250565b600061377b6013836130dc565b915061378682613745565b602082019050919050565b600060208201905081810360008301526137aa8161376e565b9050919050565b60006060820190506137c66000830186612a3e565b6137d36020830185612a3e565b6137e0604083018461297f565b949350505050565b7f5472616e73666572206661696c65642e00000000000000000000000000000000600082015250565b600061381e6010836130dc565b9150613829826137e8565b602082019050919050565b6000602082019050818103600083015261384d81613811565b9050919050565b7f537761702068617320657870697265642e000000000000000000000000000000600082015250565b600061388a6011836130dc565b915061389582613854565b602082019050919050565b600060208201905081810360008301526138b98161387d565b9050919050565b7f4e487b7100000000000000000000000000000000000000000000000000000000600052601160045260246000fd5b60006138fa82612975565b915061390583612975565b925082820390508181111561391d5761391c6138c0565b5b92915050565b6000819050919050565b61393e61393982612975565b613923565b82525050565b6000613950828561392d565b602082019150613960828461392d565b6020820191508190509392505050565b7f496e76616c6964206d6573736167652076616c75652e00000000000000000000600082015250565b60006139a66016836130dc565b91506139b182613970565b602082019050919050565b600060208201905081810360008301526139d581613999565b9050919050565b60006060820190506139f160008301866133b8565b6139fe60208301856133b8565b613a0b60408301846133b8565b949350505050565b6000819050919050565b600077ffffffffffffffffffffffffffffffffffffffffffffffff82169050919050565b6000613a5c613a57613a5284613a13565b612ea9565b613a1d565b9050919050565b613a6c81613a41565b82525050565b6000604082019050613a876000830185612a3e565b613a946020830184613a63565b9392505050565b7f4e487b7100000000000000000000000000000000000000000000000000000000600052601260045260246000fd5b60008160001b9050919050565b6000613af2613aed613ae884613a13565b613aca565b612b3d565b9050919050565b613b0281613ad7565b82525050565b613b1181612b3d565b82525050565b6000608082019050613b2c6000830187613af9565b613b396020830186612e52565b613b466040830185613b08565b613b536060830184613b08565b95945050505050565b7f496e73756666696369656e74206665652e000000000000000000000000000000600082015250565b6000613b926011836130dc565b9150613b9d82613b5c565b602082019050919050565b60006020820190508181036000830152613bc181613b85565b9050919050565b7f6163636f756e743a206e6f742066726f6d20456e747279506f696e7400000000600082015250565b6000613bfe601c836130dc565b9150613c0982613bc8565b602082019050919050565b60006020820190508181036000830152613c2d81613bf1565b9050919050565b600081905092915050565b50565b6000613c4f600083613c34565b9150613c5a82613c3f565b600082019050919050565b6000613c7082613c42565b915081905091905056fea2646970667358221220d018969d715d65ec5a1e5a3c247dc43b20ab6a36987df8b2d4bab3fd48261a1f64736f6c63430008120033",
    "linkReferences": {
        "contracts/ECCUtils.sol": {
            "ECCUtils": [
                {
                    "length": 20,
                    "start": 4475
                },
                {
                    "length": 20,
                    "start": 7906
                }
            ]
        }
    },
    "deployedLinkReferences": {
        "contracts/ECCUtils.sol": {
            "ECCUtils": [
                {
                    "length": 20,
                    "start": 3767
                },
                {
                    "length": 20,
                    "start": 7198
                }
            ]
        }
    }
}