{
  "_format": "hh-sol-artifact-1",
  "contractName": "AtomicCloak",
  "sourceName": "contracts/AtomicCloak.sol",
  "abi": [
    {
      "inputs": [
        {
          "internalType": "address",
          "name": "__entryPoint",
          "type": "address"
        }
      ],
      "stateMutability": "nonpayable",
      "type": "constructor"
    },
    {
      "anonymous": false,
      "inputs": [
        {
          "indexed": true,
          "internalType": "address",
          "name": "_swapID",
          "type": "address"
        },
        {
          "indexed": true,
          "internalType": "uint256",
          "name": "_secretKey",
          "type": "uint256"
        }
      ],
      "name": "Close",
      "type": "event"
    },
    {
      "anonymous": false,
      "inputs": [
        {
          "indexed": true,
          "internalType": "address",
          "name": "_swapID",
          "type": "address"
        }
      ],
      "name": "Expire",
      "type": "event"
    },
    {
      "anonymous": false,
      "inputs": [
        {
          "indexed": true,
          "internalType": "address",
          "name": "_swapID",
          "type": "address"
        },
        {
          "indexed": true,
          "internalType": "address",
          "name": "_sender",
          "type": "address"
        },
        {
          "indexed": true,
          "internalType": "address",
          "name": "_recipient",
          "type": "address"
        }
      ],
      "name": "Open",
      "type": "event"
    },
    {
      "inputs": [
        {
          "internalType": "address",
          "name": "_swapID",
          "type": "address"
        },
        {
          "internalType": "uint256",
          "name": "_secretKey",
          "type": "uint256"
        }
      ],
      "name": "close",
      "outputs": [],
      "stateMutability": "nonpayable",
      "type": "function"
    },
    {
      "inputs": [
        {
          "internalType": "address",
          "name": "_swapID",
          "type": "address"
        },
        {
          "internalType": "uint256",
          "name": "_secretKey",
          "type": "uint256"
        }
      ],
      "name": "closeNoVerify",
      "outputs": [],
      "stateMutability": "nonpayable",
      "type": "function"
    },
    {
      "inputs": [
        {
          "internalType": "uint256",
          "name": "_secretKey",
          "type": "uint256"
        }
      ],
      "name": "commitmentFromSecret",
      "outputs": [
        {
          "internalType": "uint256",
          "name": "",
          "type": "uint256"
        },
        {
          "internalType": "uint256",
          "name": "",
          "type": "uint256"
        }
      ],
      "stateMutability": "pure",
      "type": "function"
    },
    {
      "inputs": [
        {
          "internalType": "uint256",
          "name": "_qx",
          "type": "uint256"
        },
        {
          "internalType": "uint256",
          "name": "_qy",
          "type": "uint256"
        }
      ],
      "name": "commitmentToAddress",
      "outputs": [
        {
          "internalType": "address",
          "name": "",
          "type": "address"
        }
      ],
      "stateMutability": "pure",
      "type": "function"
    },
    {
      "inputs": [],
      "name": "curveOrder",
      "outputs": [
        {
          "internalType": "uint256",
          "name": "",
          "type": "uint256"
        }
      ],
      "stateMutability": "view",
      "type": "function"
    },
    {
      "inputs": [],
      "name": "entryPoint",
      "outputs": [
        {
          "internalType": "contract IEntryPoint",
          "name": "",
          "type": "address"
        }
      ],
      "stateMutability": "view",
      "type": "function"
    },
    {
      "inputs": [
        {
          "internalType": "uint256",
          "name": "_secretKey",
          "type": "uint256"
        }
      ],
      "name": "getHashedCommitment",
      "outputs": [
        {
          "internalType": "address",
          "name": "",
          "type": "address"
        }
      ],
      "stateMutability": "pure",
      "type": "function"
    },
    {
      "inputs": [],
      "name": "getNonce",
      "outputs": [
        {
          "internalType": "uint256",
          "name": "",
          "type": "uint256"
        }
      ],
      "stateMutability": "view",
      "type": "function"
    },
    {
      "inputs": [],
      "name": "gx",
      "outputs": [
        {
          "internalType": "uint256",
          "name": "",
          "type": "uint256"
        }
      ],
      "stateMutability": "view",
      "type": "function"
    },
    {
      "inputs": [],
      "name": "gy",
      "outputs": [
        {
          "internalType": "uint256",
          "name": "",
          "type": "uint256"
        }
      ],
      "stateMutability": "view",
      "type": "function"
    },
    {
      "inputs": [],
      "name": "gyParity",
      "outputs": [
        {
          "internalType": "uint8",
          "name": "",
          "type": "uint8"
        }
      ],
      "stateMutability": "view",
      "type": "function"
    },
    {
      "inputs": [
        {
          "internalType": "uint256",
          "name": "_qx",
          "type": "uint256"
        },
        {
          "internalType": "uint256",
          "name": "_qy",
          "type": "uint256"
        },
        {
          "internalType": "address payable",
          "name": "_recipient",
          "type": "address"
        },
        {
          "internalType": "uint256",
          "name": "_timelock",
          "type": "uint256"
        },
        {
          "internalType": "address",
          "name": "_tokenAddress",
          "type": "address"
        },
        {
          "internalType": "uint256",
          "name": "_value",
          "type": "uint256"
        }
      ],
      "name": "openERC20",
      "outputs": [],
      "stateMutability": "payable",
      "type": "function"
    },
    {
      "inputs": [
        {
          "internalType": "uint256",
          "name": "_qx",
          "type": "uint256"
        },
        {
          "internalType": "uint256",
          "name": "_qy",
          "type": "uint256"
        },
        {
          "internalType": "address payable",
          "name": "_recipient",
          "type": "address"
        },
        {
          "internalType": "uint256",
          "name": "_timelock",
          "type": "uint256"
        }
      ],
      "name": "openETH",
      "outputs": [],
      "stateMutability": "payable",
      "type": "function"
    },
    {
      "inputs": [
        {
          "internalType": "address",
          "name": "_swapID",
          "type": "address"
        }
      ],
      "name": "redeemExpiredSwap",
      "outputs": [],
      "stateMutability": "nonpayable",
      "type": "function"
    },
    {
      "inputs": [
        {
          "components": [
            {
              "internalType": "address",
              "name": "sender",
              "type": "address"
            },
            {
              "internalType": "uint256",
              "name": "nonce",
              "type": "uint256"
            },
            {
              "internalType": "bytes",
              "name": "initCode",
              "type": "bytes"
            },
            {
              "internalType": "bytes",
              "name": "callData",
              "type": "bytes"
            },
            {
              "internalType": "uint256",
              "name": "callGasLimit",
              "type": "uint256"
            },
            {
              "internalType": "uint256",
              "name": "verificationGasLimit",
              "type": "uint256"
            },
            {
              "internalType": "uint256",
              "name": "preVerificationGas",
              "type": "uint256"
            },
            {
              "internalType": "uint256",
              "name": "maxFeePerGas",
              "type": "uint256"
            },
            {
              "internalType": "uint256",
              "name": "maxPriorityFeePerGas",
              "type": "uint256"
            },
            {
              "internalType": "bytes",
              "name": "paymasterAndData",
              "type": "bytes"
            },
            {
              "internalType": "bytes",
              "name": "signature",
              "type": "bytes"
            }
          ],
          "internalType": "struct UserOperation",
          "name": "userOp",
          "type": "tuple"
        },
        {
          "internalType": "bytes32",
          "name": "userOpHash",
          "type": "bytes32"
        },
        {
          "internalType": "uint256",
          "name": "missingAccountFunds",
          "type": "uint256"
        }
      ],
      "name": "validateUserOp",
      "outputs": [
        {
          "internalType": "uint256",
          "name": "validationData",
          "type": "uint256"
        }
      ],
      "stateMutability": "nonpayable",
      "type": "function"
    },
    {
      "inputs": [
        {
          "internalType": "uint256",
          "name": "_secretKey",
          "type": "uint256"
        },
        {
          "internalType": "address",
          "name": "_swapID",
          "type": "address"
        }
      ],
      "name": "verifyHashedCommitment",
      "outputs": [
        {
          "internalType": "bool",
          "name": "",
          "type": "bool"
        }
      ],
      "stateMutability": "pure",
      "type": "function"
    }
  ],
  "bytecode": "0x610160604052600073ffffffffffffffffffffffffffffffffffffffff1660a09073ffffffffffffffffffffffffffffffffffffffff1681525063685da72760e01b7bffffffffffffffffffffffffffffffffffffffffffffffffffffffff191660c0907bffffffffffffffffffffffffffffffffffffffffffffffffffffffff19168152507fa6ecb3f599964fe04c72e486a8f90172493c21f4185f1ab9a7fe05659480c54860e0908152507fdf67fd3f4255826c234a5262adc70e14a6d42f13ee55b65e885e666e1dd5d3f561010090815250601c60ff166101209060ff168152507ffffffffffffffffffffffffffffffffebaaedce6af48a03bbfd25e8cd0364141610140908152503480156200011857600080fd5b506040516200366d3803806200366d83398181016040528101906200013e9190620001e3565b8073ffffffffffffffffffffffffffffffffffffffff1660808173ffffffffffffffffffffffffffffffffffffffff16815250505062000215565b600080fd5b600073ffffffffffffffffffffffffffffffffffffffff82169050919050565b6000620001ab826200017e565b9050919050565b620001bd816200019e565b8114620001c957600080fd5b50565b600081519050620001dd81620001b2565b92915050565b600060208284031215620001fc57620001fb62000179565b5b60006200020c84828501620001cc565b91505092915050565b60805160a05160c05160e0516101005161012051610140516133b7620002b66000396000818161042901526118ff0152600081816116d401526118ba01526000818161040501526117770152600081816103e101528181611756015281816118db015261192e01526000611fd10152600081816107ab01528181610ae70152818161146d01528181611cc6015261228b0152600061180201526133b76000f3fe6080604052600436106100f35760003560e01c80638b5c77f91161008a578063b0d691fe11610059578063b0d691fe14610323578063d087d2881461034e578063df87326414610379578063e49280cb146103b6576100f3565b80638b5c77f9146102615780639840f5441461027d5780639a5bac07146102a85780639fc4c830146102e5576100f3565b806358f6956b116100c657806358f6956b146101b6578063683dfb81146101df578063685da727146101fb578063888396d114610224576100f3565b806306c91ce3146100f85780632d58c9a214610123578063307c08391461014e5780633a871cdd14610179575b600080fd5b34801561010457600080fd5b5061010d6103df565b60405161011a91906123fc565b60405180910390f35b34801561012f57600080fd5b50610138610403565b60405161014591906123fc565b60405180910390f35b34801561015a57600080fd5b50610163610427565b60405161017091906123fc565b60405180910390f35b34801561018557600080fd5b506101a0600480360381019061019b91906124a8565b61044b565b6040516101ad91906123fc565b60405180910390f35b3480156101c257600080fd5b506101dd60048036038101906101d89190612575565b61047e565b005b6101f960048036038101906101f491906125e0565b610a11565b005b34801561020757600080fd5b50610222600480360381019061021d919061266d565b610fd8565b005b34801561023057600080fd5b5061024b600480360381019061024691906126ad565b6112f0565b60405161025891906126fc565b60405180910390f35b61027b60048036038101906102769190612717565b611341565b005b34801561028957600080fd5b506102926116d2565b60405161029f919061279a565b60405180910390f35b3480156102b457600080fd5b506102cf60048036038101906102ca91906127b5565b6116f6565b6040516102dc9190612810565b60405180910390f35b3480156102f157600080fd5b5061030c6004803603810190610307919061282b565b611737565b60405161031a929190612858565b60405180910390f35b34801561032f57600080fd5b506103386117fe565b60405161034591906128e0565b60405180910390f35b34801561035a57600080fd5b50610363611826565b60405161037091906123fc565b60405180910390f35b34801561038557600080fd5b506103a0600480360381019061039b919061282b565b6118b1565b6040516103ad91906126fc565b60405180910390f35b3480156103c257600080fd5b506103dd60048036038101906103d8919061266d565b6119a6565b005b7f000000000000000000000000000000000000000000000000000000000000000081565b7f000000000000000000000000000000000000000000000000000000000000000081565b7f000000000000000000000000000000000000000000000000000000000000000081565b6000610455611f2f565b61045f8484611fa6565b905061046e8460200135612344565b61047782612347565b9392505050565b8060008060008373ffffffffffffffffffffffffffffffffffffffff1673ffffffffffffffffffffffffffffffffffffffff1681526020019081526020016000206002015411610503576040517f08c379a00000000000000000000000000000000000000000000000000000000081526004016104fa90612958565b60405180910390fd5b426000808373ffffffffffffffffffffffffffffffffffffffff1673ffffffffffffffffffffffffffffffffffffffff1681526020019081526020016000206000015410610586576040517f08c379a000000000000000000000000000000000000000000000000000000000815260040161057d906129c4565b60405180910390fd5b816000808273ffffffffffffffffffffffffffffffffffffffff1673ffffffffffffffffffffffffffffffffffffffff1681526020019081526020016000206000015442101561060b576040517f08c379a000000000000000000000000000000000000000000000000000000000815260040161060290612a30565b60405180910390fd5b60008060008573ffffffffffffffffffffffffffffffffffffffff1673ffffffffffffffffffffffffffffffffffffffff1681526020019081526020016000206040518060c0016040529081600082015481526020016001820160009054906101000a900473ffffffffffffffffffffffffffffffffffffffff1673ffffffffffffffffffffffffffffffffffffffff1673ffffffffffffffffffffffffffffffffffffffff168152602001600282015481526020016003820160009054906101000a900473ffffffffffffffffffffffffffffffffffffffff1673ffffffffffffffffffffffffffffffffffffffff1673ffffffffffffffffffffffffffffffffffffffff1681526020016004820160009054906101000a900473ffffffffffffffffffffffffffffffffffffffff1673ffffffffffffffffffffffffffffffffffffffff1673ffffffffffffffffffffffffffffffffffffffff1681526020016004820160149054906101000a900460ff16600281111561079157610790612a50565b5b60028111156107a3576107a2612a50565b5b8152505090507f000000000000000000000000000000000000000000000000000000000000000073ffffffffffffffffffffffffffffffffffffffff16816020015173ffffffffffffffffffffffffffffffffffffffff160361085457806060015173ffffffffffffffffffffffffffffffffffffffff166108fc82604001519081150290604051600060405180830381858888f1935050505015801561084e573d6000803e3d6000fd5b506108ee565b6000816020015190508073ffffffffffffffffffffffffffffffffffffffff1663a9059cbb836060015184604001516040518363ffffffff1660e01b81526004016108a0929190612aa0565b6020604051808303816000875af11580156108bf573d6000803e3d6000fd5b505050506040513d601f19601f820116820180604052508101906108e39190612af5565b6108ec57600080fd5b505b8373ffffffffffffffffffffffffffffffffffffffff167f0c36ba37282164e86020ce85f921bc1614b495edb4d3925de9b5b55f2c1bce4a60405160405180910390a26000808573ffffffffffffffffffffffffffffffffffffffff1673ffffffffffffffffffffffffffffffffffffffff1681526020019081526020016000206000808201600090556001820160006101000a81549073ffffffffffffffffffffffffffffffffffffffff021916905560028201600090556003820160006101000a81549073ffffffffffffffffffffffffffffffffffffffff02191690556004820160006101000a81549073ffffffffffffffffffffffffffffffffffffffff02191690556004820160146101000a81549060ff0219169055505050505050565b6000610a1d87876112f0565b905060008060008373ffffffffffffffffffffffffffffffffffffffff1673ffffffffffffffffffffffffffffffffffffffff1681526020019081526020016000206002015414610aa3576040517f08c379a0000000000000000000000000000000000000000000000000000000008152600401610a9a90612b6e565b60405180910390fd5b428411610ae5576040517f08c379a0000000000000000000000000000000000000000000000000000000008152600401610adc90612c00565b60405180910390fd5b7f000000000000000000000000000000000000000000000000000000000000000073ffffffffffffffffffffffffffffffffffffffff168373ffffffffffffffffffffffffffffffffffffffff1603610b73576040517f08c379a0000000000000000000000000000000000000000000000000000000008152600401610b6a90612c92565b60405180910390fd5b60003414610bb6576040517f08c379a0000000000000000000000000000000000000000000000000000000008152600401610bad90612d24565b60405180910390fd5b60008211610bf9576040517f08c379a0000000000000000000000000000000000000000000000000000000008152600401610bf090612d90565b60405180910390fd5b6000839050828173ffffffffffffffffffffffffffffffffffffffff1663dd62ed3e33306040518363ffffffff1660e01b8152600401610c3a929190612db0565b602060405180830381865afa158015610c57573d6000803e3d6000fd5b505050506040513d601f19601f82011682018060405250810190610c7b9190612dee565b1015610cbc576040517f08c379a0000000000000000000000000000000000000000000000000000000008152600401610cb390612e67565b60405180910390fd5b8073ffffffffffffffffffffffffffffffffffffffff166323b872dd3330866040518463ffffffff1660e01b8152600401610cf993929190612e87565b6020604051808303816000875af1158015610d18573d6000803e3d6000fd5b505050506040513d601f19601f82011682018060405250810190610d3c9190612af5565b610d7b576040517f08c379a0000000000000000000000000000000000000000000000000000000008152600401610d7290612f0a565b60405180910390fd5b60006040518060c001604052808781526020018673ffffffffffffffffffffffffffffffffffffffff1681526020018581526020013373ffffffffffffffffffffffffffffffffffffffff1681526020018873ffffffffffffffffffffffffffffffffffffffff16815260200160006002811115610dfc57610dfb612a50565b5b8152509050806000808573ffffffffffffffffffffffffffffffffffffffff1673ffffffffffffffffffffffffffffffffffffffff1681526020019081526020016000206000820151816000015560208201518160010160006101000a81548173ffffffffffffffffffffffffffffffffffffffff021916908373ffffffffffffffffffffffffffffffffffffffff1602179055506040820151816002015560608201518160030160006101000a81548173ffffffffffffffffffffffffffffffffffffffff021916908373ffffffffffffffffffffffffffffffffffffffff16021790555060808201518160040160006101000a81548173ffffffffffffffffffffffffffffffffffffffff021916908373ffffffffffffffffffffffffffffffffffffffff16021790555060a08201518160040160146101000a81548160ff02191690836002811115610f5457610f53612a50565b5b02179055509050508673ffffffffffffffffffffffffffffffffffffffff163373ffffffffffffffffffffffffffffffffffffffff168473ffffffffffffffffffffffffffffffffffffffff167f0fd721862391d6a2d7f510b77eeb0c6becf9e25a100fb8d3902432647aade2dd60405160405180910390a4505050505050505050565b610fe0611f2f565b60008060008473ffffffffffffffffffffffffffffffffffffffff1673ffffffffffffffffffffffffffffffffffffffff1681526020019081526020016000206040518060c0016040529081600082015481526020016001820160009054906101000a900473ffffffffffffffffffffffffffffffffffffffff1673ffffffffffffffffffffffffffffffffffffffff1673ffffffffffffffffffffffffffffffffffffffff168152602001600282015481526020016003820160009054906101000a900473ffffffffffffffffffffffffffffffffffffffff1673ffffffffffffffffffffffffffffffffffffffff1673ffffffffffffffffffffffffffffffffffffffff1681526020016004820160009054906101000a900473ffffffffffffffffffffffffffffffffffffffff1673ffffffffffffffffffffffffffffffffffffffff1673ffffffffffffffffffffffffffffffffffffffff1681526020016004820160149054906101000a900460ff16600281111561116657611165612a50565b5b600281111561117857611177612a50565b5b815250509050806080015173ffffffffffffffffffffffffffffffffffffffff166108fc82604001519081150290604051600060405180830381858888f193505050501580156111cc573d6000803e3d6000fd5b50818373ffffffffffffffffffffffffffffffffffffffff167f684222b0069d4a2e5e0d986611cc5182d543904c4e4264bf770d4e51faefc82260405160405180910390a36000808473ffffffffffffffffffffffffffffffffffffffff1673ffffffffffffffffffffffffffffffffffffffff1681526020019081526020016000206000808201600090556001820160006101000a81549073ffffffffffffffffffffffffffffffffffffffff021916905560028201600090556003820160006101000a81549073ffffffffffffffffffffffffffffffffffffffff02191690556004820160006101000a81549073ffffffffffffffffffffffffffffffffffffffff02191690556004820160146101000a81549060ff02191690555050505050565b60008073ffffffffffffffffffffffffffffffffffffffff848460405160200161131b929190612f4b565b6040516020818303038152906040528051906020012060001c1690508091505092915050565b600061134d85856112f0565b905060008060008373ffffffffffffffffffffffffffffffffffffffff1673ffffffffffffffffffffffffffffffffffffffff16815260200190815260200160002060020154146113d3576040517f08c379a00000000000000000000000000000000000000000000000000000000081526004016113ca90612b6e565b60405180910390fd5b428211611415576040517f08c379a000000000000000000000000000000000000000000000000000000000815260040161140c90612c00565b60405180910390fd5b60003411611458576040517f08c379a000000000000000000000000000000000000000000000000000000000815260040161144f90612d90565b60405180910390fd5b60006040518060c001604052808481526020017f000000000000000000000000000000000000000000000000000000000000000073ffffffffffffffffffffffffffffffffffffffff1681526020013481526020013373ffffffffffffffffffffffffffffffffffffffff1681526020018573ffffffffffffffffffffffffffffffffffffffff168152602001600060028111156114f9576114f8612a50565b5b8152509050806000808473ffffffffffffffffffffffffffffffffffffffff1673ffffffffffffffffffffffffffffffffffffffff1681526020019081526020016000206000820151816000015560208201518160010160006101000a81548173ffffffffffffffffffffffffffffffffffffffff021916908373ffffffffffffffffffffffffffffffffffffffff1602179055506040820151816002015560608201518160030160006101000a81548173ffffffffffffffffffffffffffffffffffffffff021916908373ffffffffffffffffffffffffffffffffffffffff16021790555060808201518160040160006101000a81548173ffffffffffffffffffffffffffffffffffffffff021916908373ffffffffffffffffffffffffffffffffffffffff16021790555060a08201518160040160146101000a81548160ff0219169083600281111561165157611650612a50565b5b02179055509050508373ffffffffffffffffffffffffffffffffffffffff163373ffffffffffffffffffffffffffffffffffffffff168373ffffffffffffffffffffffffffffffffffffffff167f0fd721862391d6a2d7f510b77eeb0c6becf9e25a100fb8d3902432647aade2dd60405160405180910390a4505050505050565b7f000000000000000000000000000000000000000000000000000000000000000081565b60008173ffffffffffffffffffffffffffffffffffffffff16611718846118b1565b73ffffffffffffffffffffffffffffffffffffffff1614905092915050565b60008073__$a7f515f87d6f6cd1e35111d553ac002116$__638081a1e77f00000000000000000000000000000000000000000000000000000000000000007f0000000000000000000000000000000000000000000000000000000000000000866040518463ffffffff1660e01b81526004016117b593929190612f86565b6040805180830381865af41580156117d1573d6000803e3d6000fd5b505050506040513d601f19601f820116820180604052508101906117f59190612fbd565b91509150915091565b60007f0000000000000000000000000000000000000000000000000000000000000000905090565b60006118306117fe565b73ffffffffffffffffffffffffffffffffffffffff166335567e1a3060006040518363ffffffff1660e01b815260040161186b92919061305c565b602060405180830381865afa158015611888573d6000803e3d6000fd5b505050506040513d601f19601f820116820180604052508101906118ac9190612dee565b905090565b600080600160007f00000000000000000000000000000000000000000000000000000000000000007f000000000000000000000000000000000000000000000000000000000000000060001b7f00000000000000000000000000000000000000000000000000000000000000008061192c5761192b613085565b5b7f0000000000000000000000000000000000000000000000000000000000000000880960001b6040516000815260200160405260405161196f9493929190613101565b6020604051602081039080840390855afa158015611991573d6000803e3d6000fd5b50505060206040510351905080915050919050565b8160008060008373ffffffffffffffffffffffffffffffffffffffff1673ffffffffffffffffffffffffffffffffffffffff1681526020019081526020016000206002015411611a2b576040517f08c379a0000000000000000000000000000000000000000000000000000000008152600401611a2290612958565b60405180910390fd5b426000808373ffffffffffffffffffffffffffffffffffffffff1673ffffffffffffffffffffffffffffffffffffffff1681526020019081526020016000206000015410611aae576040517f08c379a0000000000000000000000000000000000000000000000000000000008152600401611aa5906129c4565b60405180910390fd5b82828173ffffffffffffffffffffffffffffffffffffffff16611ad0826118b1565b73ffffffffffffffffffffffffffffffffffffffff1614611b26576040517f08c379a0000000000000000000000000000000000000000000000000000000008152600401611b1d90613192565b60405180910390fd5b60008060008773ffffffffffffffffffffffffffffffffffffffff1673ffffffffffffffffffffffffffffffffffffffff1681526020019081526020016000206040518060c0016040529081600082015481526020016001820160009054906101000a900473ffffffffffffffffffffffffffffffffffffffff1673ffffffffffffffffffffffffffffffffffffffff1673ffffffffffffffffffffffffffffffffffffffff168152602001600282015481526020016003820160009054906101000a900473ffffffffffffffffffffffffffffffffffffffff1673ffffffffffffffffffffffffffffffffffffffff1673ffffffffffffffffffffffffffffffffffffffff1681526020016004820160009054906101000a900473ffffffffffffffffffffffffffffffffffffffff1673ffffffffffffffffffffffffffffffffffffffff1673ffffffffffffffffffffffffffffffffffffffff1681526020016004820160149054906101000a900460ff166002811115611cac57611cab612a50565b5b6002811115611cbe57611cbd612a50565b5b8152505090507f000000000000000000000000000000000000000000000000000000000000000073ffffffffffffffffffffffffffffffffffffffff16816020015173ffffffffffffffffffffffffffffffffffffffff1603611d6f57806080015173ffffffffffffffffffffffffffffffffffffffff166108fc82604001519081150290604051600060405180830381858888f19350505050158015611d69573d6000803e3d6000fd5b50611e09565b6000816020015190508073ffffffffffffffffffffffffffffffffffffffff1663a9059cbb836080015184604001516040518363ffffffff1660e01b8152600401611dbb929190612aa0565b6020604051808303816000875af1158015611dda573d6000803e3d6000fd5b505050506040513d601f19601f82011682018060405250810190611dfe9190612af5565b611e0757600080fd5b505b848673ffffffffffffffffffffffffffffffffffffffff167f684222b0069d4a2e5e0d986611cc5182d543904c4e4264bf770d4e51faefc82260405160405180910390a36000808773ffffffffffffffffffffffffffffffffffffffff1673ffffffffffffffffffffffffffffffffffffffff1681526020019081526020016000206000808201600090556001820160006101000a81549073ffffffffffffffffffffffffffffffffffffffff021916905560028201600090556003820160006101000a81549073ffffffffffffffffffffffffffffffffffffffff02191690556004820160006101000a81549073ffffffffffffffffffffffffffffffffffffffff02191690556004820160146101000a81549060ff02191690555050505050505050565b611f376117fe565b73ffffffffffffffffffffffffffffffffffffffff163373ffffffffffffffffffffffffffffffffffffffff1614611fa4576040517f08c379a0000000000000000000000000000000000000000000000000000000008152600401611f9b906131fe565b60405180910390fd5b565b600080600080858060600190611fbc919061322d565b810190611fc991906132e8565b9250925092507f00000000000000000000000000000000000000000000000000000000000000007bffffffffffffffffffffffffffffffffffffffffffffffffffffffff1916837bffffffffffffffffffffffffffffffffffffffffffffffffffffffff191614612040576001935050505061233e565b60008060008473ffffffffffffffffffffffffffffffffffffffff1673ffffffffffffffffffffffffffffffffffffffff1681526020019081526020016000206040518060c0016040529081600082015481526020016001820160009054906101000a900473ffffffffffffffffffffffffffffffffffffffff1673ffffffffffffffffffffffffffffffffffffffff1673ffffffffffffffffffffffffffffffffffffffff168152602001600282015481526020016003820160009054906101000a900473ffffffffffffffffffffffffffffffffffffffff1673ffffffffffffffffffffffffffffffffffffffff1673ffffffffffffffffffffffffffffffffffffffff1681526020016004820160009054906101000a900473ffffffffffffffffffffffffffffffffffffffff1673ffffffffffffffffffffffffffffffffffffffff1673ffffffffffffffffffffffffffffffffffffffff1681526020016004820160149054906101000a900460ff1660028111156121c6576121c5612a50565b5b60028111156121d8576121d7612a50565b5b81525050905060008060008573ffffffffffffffffffffffffffffffffffffffff1673ffffffffffffffffffffffffffffffffffffffff168152602001908152602001600020600201540361223457600194505050505061233e565b426000808573ffffffffffffffffffffffffffffffffffffffff1673ffffffffffffffffffffffffffffffffffffffff168152602001908152602001600020600001541061228957600194505050505061233e565b7f000000000000000000000000000000000000000000000000000000000000000073ffffffffffffffffffffffffffffffffffffffff16816020015173ffffffffffffffffffffffffffffffffffffffff16146122ed57600194505050505061233e565b8273ffffffffffffffffffffffffffffffffffffffff1661230d836118b1565b73ffffffffffffffffffffffffffffffffffffffff161461233557600194505050505061233e565b60009450505050505b92915050565b50565b600081146123e05760003373ffffffffffffffffffffffffffffffffffffffff16827fffffffffffffffffffffffffffffffffffffffffffffffffffffffffffffffff906040516123979061336c565b600060405180830381858888f193505050503d80600081146123d5576040519150601f19603f3d011682016040523d82523d6000602084013e6123da565b606091505b50509050505b50565b6000819050919050565b6123f6816123e3565b82525050565b600060208201905061241160008301846123ed565b92915050565b600080fd5b600080fd5b600080fd5b6000610160828403121561243d5761243c612421565b5b81905092915050565b6000819050919050565b61245981612446565b811461246457600080fd5b50565b60008135905061247681612450565b92915050565b612485816123e3565b811461249057600080fd5b50565b6000813590506124a28161247c565b92915050565b6000806000606084860312156124c1576124c0612417565b5b600084013567ffffffffffffffff8111156124df576124de61241c565b5b6124eb86828701612426565b93505060206124fc86828701612467565b925050604061250d86828701612493565b9150509250925092565b600073ffffffffffffffffffffffffffffffffffffffff82169050919050565b600061254282612517565b9050919050565b61255281612537565b811461255d57600080fd5b50565b60008135905061256f81612549565b92915050565b60006020828403121561258b5761258a612417565b5b600061259984828501612560565b91505092915050565b60006125ad82612517565b9050919050565b6125bd816125a2565b81146125c857600080fd5b50565b6000813590506125da816125b4565b92915050565b60008060008060008060c087890312156125fd576125fc612417565b5b600061260b89828a01612493565b965050602061261c89828a01612493565b955050604061262d89828a016125cb565b945050606061263e89828a01612493565b935050608061264f89828a01612560565b92505060a061266089828a01612493565b9150509295509295509295565b6000806040838503121561268457612683612417565b5b600061269285828601612560565b92505060206126a385828601612493565b9150509250929050565b600080604083850312156126c4576126c3612417565b5b60006126d285828601612493565b92505060206126e385828601612493565b9150509250929050565b6126f681612537565b82525050565b600060208201905061271160008301846126ed565b92915050565b6000806000806080858703121561273157612730612417565b5b600061273f87828801612493565b945050602061275087828801612493565b9350506040612761878288016125cb565b925050606061277287828801612493565b91505092959194509250565b600060ff82169050919050565b6127948161277e565b82525050565b60006020820190506127af600083018461278b565b92915050565b600080604083850312156127cc576127cb612417565b5b60006127da85828601612493565b92505060206127eb85828601612560565b9150509250929050565b60008115159050919050565b61280a816127f5565b82525050565b60006020820190506128256000830184612801565b92915050565b60006020828403121561284157612840612417565b5b600061284f84828501612493565b91505092915050565b600060408201905061286d60008301856123ed565b61287a60208301846123ed565b9392505050565b6000819050919050565b60006128a66128a161289c84612517565b612881565b612517565b9050919050565b60006128b88261288b565b9050919050565b60006128ca826128ad565b9050919050565b6128da816128bf565b82525050565b60006020820190506128f560008301846128d1565b92915050565b600082825260208201905092915050565b7f5377617020686173206e6f74206265656e206f70656e65642e00000000000000600082015250565b60006129426019836128fb565b915061294d8261290c565b602082019050919050565b6000602082019050818103600083015261297181612935565b9050919050565b7f537761702068617320657870697265642e000000000000000000000000000000600082015250565b60006129ae6011836128fb565b91506129b982612978565b602082019050919050565b600060208201905081810360008301526129dd816129a1565b9050919050565b7f5377617020686173206e6f7420657870697265642e0000000000000000000000600082015250565b6000612a1a6015836128fb565b9150612a25826129e4565b602082019050919050565b60006020820190508181036000830152612a4981612a0d565b9050919050565b7f4e487b7100000000000000000000000000000000000000000000000000000000600052602160045260246000fd5b6000612a8a826128ad565b9050919050565b612a9a81612a7f565b82525050565b6000604082019050612ab56000830185612a91565b612ac260208301846123ed565b9392505050565b612ad2816127f5565b8114612add57600080fd5b50565b600081519050612aef81612ac9565b92915050565b600060208284031215612b0b57612b0a612417565b5b6000612b1984828501612ae0565b91505092915050565b7f5377617020686173206265656e20616c7265616479206f70656e65642e000000600082015250565b6000612b58601d836128fb565b9150612b6382612b22565b602082019050919050565b60006020820190508181036000830152612b8781612b4b565b9050919050565b7f54696d656c6f636b2076616c7565206d75737420626520696e2074686520667560008201527f747572652e000000000000000000000000000000000000000000000000000000602082015250565b6000612bea6025836128fb565b9150612bf582612b8e565b604082019050919050565b60006020820190508181036000830152612c1981612bdd565b9050919050565b7f5468652061646472657373206973206e6f7420612076616c696420455243323060008201527f20746f6b656e2e00000000000000000000000000000000000000000000000000602082015250565b6000612c7c6027836128fb565b9150612c8782612c20565b604082019050919050565b60006020820190508181036000830152612cab81612c6f565b9050919050565b7f43616e6e6f742073656e6420455448207768656e207377617070696e6720616e60008201527f20455243323020746f6b656e2e00000000000000000000000000000000000000602082015250565b6000612d0e602d836128fb565b9150612d1982612cb2565b604082019050919050565b60006020820190508181036000830152612d3d81612d01565b9050919050565b7f56616c7565206d757374206265206c6172676572207468616e20302e00000000600082015250565b6000612d7a601c836128fb565b9150612d8582612d44565b602082019050919050565b60006020820190508181036000830152612da981612d6d565b9050919050565b6000604082019050612dc560008301856126ed565b612dd260208301846126ed565b9392505050565b600081519050612de88161247c565b92915050565b600060208284031215612e0457612e03612417565b5b6000612e1284828501612dd9565b91505092915050565b7f4e6f7420656e6f7567682062616c616e63652e00000000000000000000000000600082015250565b6000612e516013836128fb565b9150612e5c82612e1b565b602082019050919050565b60006020820190508181036000830152612e8081612e44565b9050919050565b6000606082019050612e9c60008301866126ed565b612ea960208301856126ed565b612eb660408301846123ed565b949350505050565b7f5472616e73666572206661696c65642e00000000000000000000000000000000600082015250565b6000612ef46010836128fb565b9150612eff82612ebe565b602082019050919050565b60006020820190508181036000830152612f2381612ee7565b9050919050565b6000819050919050565b612f45612f40826123e3565b612f2a565b82525050565b6000612f578285612f34565b602082019150612f678284612f34565b6020820191508190509392505050565b612f80816123e3565b82525050565b6000606082019050612f9b6000830186612f77565b612fa86020830185612f77565b612fb56040830184612f77565b949350505050565b60008060408385031215612fd457612fd3612417565b5b6000612fe285828601612dd9565b9250506020612ff385828601612dd9565b9150509250929050565b6000819050919050565b600077ffffffffffffffffffffffffffffffffffffffffffffffff82169050919050565b600061304661304161303c84612ffd565b612881565b613007565b9050919050565b6130568161302b565b82525050565b600060408201905061307160008301856126ed565b61307e602083018461304d565b9392505050565b7f4e487b7100000000000000000000000000000000000000000000000000000000600052601260045260246000fd5b60008160001b9050919050565b60006130dc6130d76130d284612ffd565b6130b4565b612446565b9050919050565b6130ec816130c1565b82525050565b6130fb81612446565b82525050565b600060808201905061311660008301876130e3565b613123602083018661278b565b61313060408301856130f2565b61313d60608301846130f2565b95945050505050565b7f566572696669636174696f6e206661696c65642e000000000000000000000000600082015250565b600061317c6014836128fb565b915061318782613146565b602082019050919050565b600060208201905081810360008301526131ab8161316f565b9050919050565b7f6163636f756e743a206e6f742066726f6d20456e747279506f696e7400000000600082015250565b60006131e8601c836128fb565b91506131f3826131b2565b602082019050919050565b60006020820190508181036000830152613217816131db565b9050919050565b600080fd5b600080fd5b600080fd5b6000808335600160200384360303811261324a5761324961321e565b5b80840192508235915067ffffffffffffffff82111561326c5761326b613223565b5b60208301925060018202360383131561328857613287613228565b5b509250929050565b60007fffffffff0000000000000000000000000000000000000000000000000000000082169050919050565b6132c581613290565b81146132d057600080fd5b50565b6000813590506132e2816132bc565b92915050565b60008060006060848603121561330157613300612417565b5b600061330f868287016132d3565b9350506020613320868287016125cb565b925050604061333186828701612493565b9150509250925092565b600081905092915050565b50565b600061335660008361333b565b915061336182613346565b600082019050919050565b600061337782613349565b915081905091905056fea2646970667358221220fa407a7566775785a0963ab778832a8efc57fc14ad13aa4624063ea5a12f7c1264736f6c63430008120033",
  "linkReferences": {
    "contracts/ECCUtils.sol": {
      "ECCUtils": [
        {
          "length": 20,
          "start": 6642
        }
      ]
    }
  },
  "deployedLinkReferences": {
    "contracts/ECCUtils.sol": {
      "ECCUtils": [
        {
          "length": 20,
          "start": 5948
        }
      ]
    }
  }
}