{
    "_format": "hh-sol-artifact-1",
    "contractName": "AtomicCloak",
    "sourceName": "contracts/AtomicCloak.sol",
    "abi": [
        {
            "inputs": [
                {
                    "internalType": "address",
                    "name": "__entryPoint",
                    "type": "address"
                }
            ],
            "stateMutability": "nonpayable",
            "type": "constructor"
        },
        {
            "anonymous": false,
            "inputs": [
                {
                    "indexed": true,
                    "internalType": "address",
                    "name": "_swapID",
                    "type": "address"
                },
                {
                    "indexed": true,
                    "internalType": "uint256",
                    "name": "_secretKey",
                    "type": "uint256"
                }
            ],
            "name": "Close",
            "type": "event"
        },
        {
            "anonymous": false,
            "inputs": [
                {
                    "indexed": true,
                    "internalType": "address",
                    "name": "_swapID",
                    "type": "address"
                }
            ],
            "name": "Expire",
            "type": "event"
        },
        {
            "anonymous": false,
            "inputs": [
                {
                    "indexed": true,
                    "internalType": "address",
                    "name": "_swapID",
                    "type": "address"
                },
                {
                    "indexed": true,
                    "internalType": "address",
                    "name": "_sender",
                    "type": "address"
                },
                {
                    "indexed": true,
                    "internalType": "address",
                    "name": "_recipient",
                    "type": "address"
                }
            ],
            "name": "Open",
            "type": "event"
        },
        {
            "inputs": [
                {
                    "internalType": "address",
                    "name": "_swapID",
                    "type": "address"
                },
                {
                    "internalType": "uint256",
                    "name": "_secretKey",
                    "type": "uint256"
                }
            ],
            "name": "close",
            "outputs": [],
            "stateMutability": "payable",
            "type": "function"
        },
        {
            "inputs": [
                {
                    "internalType": "address",
                    "name": "_swapID",
                    "type": "address"
                },
                {
                    "internalType": "uint256",
                    "name": "_secretKey",
                    "type": "uint256"
                }
            ],
            "name": "closeNoVerify",
            "outputs": [],
            "stateMutability": "nonpayable",
            "type": "function"
        },
        {
            "inputs": [
                {
                    "internalType": "uint256",
                    "name": "_secretKey",
                    "type": "uint256"
                }
            ],
            "name": "commitmentFromSecret",
            "outputs": [
                {
                    "internalType": "uint256",
                    "name": "",
                    "type": "uint256"
                },
                {
                    "internalType": "uint256",
                    "name": "",
                    "type": "uint256"
                }
            ],
            "stateMutability": "pure",
            "type": "function"
        },
        {
            "inputs": [
                {
                    "internalType": "uint256",
                    "name": "_qx",
                    "type": "uint256"
                },
                {
                    "internalType": "uint256",
                    "name": "_qy",
                    "type": "uint256"
                },
                {
                    "internalType": "uint256",
                    "name": "_sharedSecret",
                    "type": "uint256"
                }
            ],
            "name": "commitmentFromSharedSecret",
            "outputs": [
                {
                    "internalType": "uint256",
                    "name": "",
                    "type": "uint256"
                },
                {
                    "internalType": "uint256",
                    "name": "",
                    "type": "uint256"
                }
            ],
            "stateMutability": "pure",
            "type": "function"
        },
        {
            "inputs": [
                {
                    "internalType": "uint256",
                    "name": "_qx",
                    "type": "uint256"
                },
                {
                    "internalType": "uint256",
                    "name": "_qy",
                    "type": "uint256"
                }
            ],
            "name": "commitmentToAddress",
            "outputs": [
                {
                    "internalType": "address",
                    "name": "",
                    "type": "address"
                }
            ],
            "stateMutability": "pure",
            "type": "function"
        },
        {
            "inputs": [],
            "name": "curveOrder",
            "outputs": [
                {
                    "internalType": "uint256",
                    "name": "",
                    "type": "uint256"
                }
            ],
            "stateMutability": "view",
            "type": "function"
        },
        {
            "inputs": [],
            "name": "entryPoint",
            "outputs": [
                {
                    "internalType": "contract IEntryPoint",
                    "name": "",
                    "type": "address"
                }
            ],
            "stateMutability": "view",
            "type": "function"
        },
        {
            "inputs": [
                {
                    "internalType": "uint256",
                    "name": "_secretKey",
                    "type": "uint256"
                }
            ],
            "name": "getHashedCommitment",
            "outputs": [
                {
                    "internalType": "address",
                    "name": "",
                    "type": "address"
                }
            ],
            "stateMutability": "pure",
            "type": "function"
        },
        {
            "inputs": [],
            "name": "getNonce",
            "outputs": [
                {
                    "internalType": "uint256",
                    "name": "",
                    "type": "uint256"
                }
            ],
            "stateMutability": "view",
            "type": "function"
        },
        {
            "inputs": [],
            "name": "gx",
            "outputs": [
                {
                    "internalType": "uint256",
                    "name": "",
                    "type": "uint256"
                }
            ],
            "stateMutability": "view",
            "type": "function"
        },
        {
            "inputs": [],
            "name": "gy",
            "outputs": [
                {
                    "internalType": "uint256",
                    "name": "",
                    "type": "uint256"
                }
            ],
            "stateMutability": "view",
            "type": "function"
        },
        {
            "inputs": [],
            "name": "gyParity",
            "outputs": [
                {
                    "internalType": "uint8",
                    "name": "",
                    "type": "uint8"
                }
            ],
            "stateMutability": "view",
            "type": "function"
        },
        {
            "inputs": [
                {
                    "internalType": "uint256",
                    "name": "_qx",
                    "type": "uint256"
                },
                {
                    "internalType": "uint256",
                    "name": "_qy",
                    "type": "uint256"
                },
                {
                    "internalType": "address payable",
                    "name": "_recipient",
                    "type": "address"
                },
                {
                    "internalType": "uint256",
                    "name": "_timelock",
                    "type": "uint256"
                },
                {
                    "internalType": "address",
                    "name": "_tokenAddress",
                    "type": "address"
                },
                {
                    "internalType": "uint256",
                    "name": "_value",
                    "type": "uint256"
                }
            ],
            "name": "openERC20",
            "outputs": [],
            "stateMutability": "payable",
            "type": "function"
        },
        {
            "inputs": [
                {
                    "internalType": "uint256",
                    "name": "_qx",
                    "type": "uint256"
                },
                {
                    "internalType": "uint256",
                    "name": "_qy",
                    "type": "uint256"
                },
                {
                    "internalType": "address payable",
                    "name": "_recipient",
                    "type": "address"
                },
                {
                    "internalType": "uint256",
                    "name": "_timelock",
                    "type": "uint256"
                }
            ],
            "name": "openETH",
            "outputs": [],
            "stateMutability": "payable",
            "type": "function"
        },
        {
            "inputs": [
                {
                    "internalType": "address",
                    "name": "_swapID",
                    "type": "address"
                }
            ],
            "name": "redeemExpiredSwap",
            "outputs": [],
            "stateMutability": "nonpayable",
            "type": "function"
        },
        {
            "inputs": [
                {
                    "internalType": "address",
                    "name": "",
                    "type": "address"
                }
            ],
            "name": "swaps",
            "outputs": [
                {
                    "internalType": "uint256",
                    "name": "timelock",
                    "type": "uint256"
                },
                {
                    "internalType": "address",
                    "name": "tokenContract",
                    "type": "address"
                },
                {
                    "internalType": "uint256",
                    "name": "value",
                    "type": "uint256"
                },
                {
                    "internalType": "address payable",
                    "name": "sender",
                    "type": "address"
                },
                {
                    "internalType": "address payable",
                    "name": "recipient",
                    "type": "address"
                },
                {
                    "internalType": "uint256",
                    "name": "fee",
                    "type": "uint256"
                }
            ],
            "stateMutability": "view",
            "type": "function"
        },
        {
            "inputs": [
                {
                    "components": [
                        {
                            "internalType": "address",
                            "name": "sender",
                            "type": "address"
                        },
                        {
                            "internalType": "uint256",
                            "name": "nonce",
                            "type": "uint256"
                        },
                        {
                            "internalType": "bytes",
                            "name": "initCode",
                            "type": "bytes"
                        },
                        {
                            "internalType": "bytes",
                            "name": "callData",
                            "type": "bytes"
                        },
                        {
                            "internalType": "uint256",
                            "name": "callGasLimit",
                            "type": "uint256"
                        },
                        {
                            "internalType": "uint256",
                            "name": "verificationGasLimit",
                            "type": "uint256"
                        },
                        {
                            "internalType": "uint256",
                            "name": "preVerificationGas",
                            "type": "uint256"
                        },
                        {
                            "internalType": "uint256",
                            "name": "maxFeePerGas",
                            "type": "uint256"
                        },
                        {
                            "internalType": "uint256",
                            "name": "maxPriorityFeePerGas",
                            "type": "uint256"
                        },
                        {
                            "internalType": "bytes",
                            "name": "paymasterAndData",
                            "type": "bytes"
                        },
                        {
                            "internalType": "bytes",
                            "name": "signature",
                            "type": "bytes"
                        }
                    ],
                    "internalType": "struct UserOperation",
                    "name": "userOp",
                    "type": "tuple"
                }
            ],
            "name": "validateSignature_test",
            "outputs": [],
            "stateMutability": "nonpayable",
            "type": "function"
        },
        {
            "inputs": [
                {
                    "components": [
                        {
                            "internalType": "address",
                            "name": "sender",
                            "type": "address"
                        },
                        {
                            "internalType": "uint256",
                            "name": "nonce",
                            "type": "uint256"
                        },
                        {
                            "internalType": "bytes",
                            "name": "initCode",
                            "type": "bytes"
                        },
                        {
                            "internalType": "bytes",
                            "name": "callData",
                            "type": "bytes"
                        },
                        {
                            "internalType": "uint256",
                            "name": "callGasLimit",
                            "type": "uint256"
                        },
                        {
                            "internalType": "uint256",
                            "name": "verificationGasLimit",
                            "type": "uint256"
                        },
                        {
                            "internalType": "uint256",
                            "name": "preVerificationGas",
                            "type": "uint256"
                        },
                        {
                            "internalType": "uint256",
                            "name": "maxFeePerGas",
                            "type": "uint256"
                        },
                        {
                            "internalType": "uint256",
                            "name": "maxPriorityFeePerGas",
                            "type": "uint256"
                        },
                        {
                            "internalType": "bytes",
                            "name": "paymasterAndData",
                            "type": "bytes"
                        },
                        {
                            "internalType": "bytes",
                            "name": "signature",
                            "type": "bytes"
                        }
                    ],
                    "internalType": "struct UserOperation",
                    "name": "userOp",
                    "type": "tuple"
                },
                {
                    "internalType": "bytes32",
                    "name": "userOpHash",
                    "type": "bytes32"
                },
                {
                    "internalType": "uint256",
                    "name": "missingAccountFunds",
                    "type": "uint256"
                }
            ],
            "name": "validateUserOp",
            "outputs": [
                {
                    "internalType": "uint256",
                    "name": "validationData",
                    "type": "uint256"
                }
            ],
            "stateMutability": "nonpayable",
            "type": "function"
        }
    ],
    "bytecode": "0x610160604052600073ffffffffffffffffffffffffffffffffffffffff1660a09073ffffffffffffffffffffffffffffffffffffffff1681525063685da72760e01b7bffffffffffffffffffffffffffffffffffffffffffffffffffffffff191660c0907bffffffffffffffffffffffffffffffffffffffffffffffffffffffff19168152507fa6ecb3f599964fe04c72e486a8f90172493c21f4185f1ab9a7fe05659480c54860e0908152507fdf67fd3f4255826c234a5262adc70e14a6d42f13ee55b65e885e666e1dd5d3f561010090815250601c60ff166101209060ff168152507ffffffffffffffffffffffffffffffffebaaedce6af48a03bbfd25e8cd0364141610140908152503480156200011857600080fd5b5060405162003fe138038062003fe183398181016040528101906200013e9190620001e3565b8073ffffffffffffffffffffffffffffffffffffffff1660808173ffffffffffffffffffffffffffffffffffffffff16815250505062000215565b600080fd5b600073ffffffffffffffffffffffffffffffffffffffff82169050919050565b6000620001ab826200017e565b9050919050565b620001bd816200019e565b8114620001c957600080fd5b50565b600081519050620001dd81620001b2565b92915050565b600060208284031215620001fc57620001fb62000179565b5b60006200020c84828501620001cc565b91505092915050565b60805160a05160c05160e051610100516101205161014051613d1d620002c46000396000818161053a0152611deb015260008181611c010152611da60152600081816105160152611c6301526000818161045601528181611c4201528181611dc70152611e1a0152600081816105f7015261258201526000818161090b01528181610cc20152818161108e015281816119cd0152818161217e015261280b01526000611cee0152613d1d6000f3fe6080604052600436106101095760003560e01c8063685da727116100955780639fc4c830116100645780639fc4c83014610367578063b0d691fe146103a5578063d087d288146103d0578063df873264146103fb578063e49280cb1461043857610109565b8063685da727146102ba578063888396d1146102e35780638b5c77f9146103205780639840f5441461033c57610109565b806338f05f60116100dc57806338f05f60146101d15780633a871cdd146101fa57806358f6956b1461023757806365f1baf314610260578063683dfb811461029e57610109565b806306c91ce31461010e5780631688cf54146101395780632d58c9a21461017b578063307c0839146101a6575b600080fd5b34801561011a57600080fd5b50610123610454565b604051610130919061297c565b60405180910390f35b34801561014557600080fd5b50610160600480360381019061015b91906129ff565b610478565b60405161017296959493929190612a5c565b60405180910390f35b34801561018757600080fd5b50610190610514565b60405161019d919061297c565b60405180910390f35b3480156101b257600080fd5b506101bb610538565b6040516101c8919061297c565b60405180910390f35b3480156101dd57600080fd5b506101f860048036038101906101f39190612ae2565b61055c565b005b34801561020657600080fd5b50610221600480360381019061021c9190612b8d565b610a18565b60405161022e919061297c565b60405180910390f35b34801561024357600080fd5b5061025e600480360381019061025991906129ff565b610a4b565b005b34801561026c57600080fd5b5061028760048036038101906102829190612bfc565b610f1a565b604051610295929190612c4f565b60405180910390f35b6102b860048036038101906102b39190612ca4565b610fb8565b005b3480156102c657600080fd5b506102e160048036038101906102dc9190612d31565b61154c565b005b3480156102ef57600080fd5b5061030a60048036038101906103059190612d71565b611827565b6040516103179190612db1565b60405180910390f35b61033a60048036038101906103359190612dcc565b611878565b005b34801561034857600080fd5b50610351611bff565b60405161035e9190612e4f565b60405180910390f35b34801561037357600080fd5b5061038e60048036038101906103899190612e6a565b611c23565b60405161039c929190612c4f565b60405180910390f35b3480156103b157600080fd5b506103ba611cea565b6040516103c79190612ef6565b60405180910390f35b3480156103dc57600080fd5b506103e5611d12565b6040516103f2919061297c565b60405180910390f35b34801561040757600080fd5b50610422600480360381019061041d9190612e6a565b611d9d565b60405161042f9190612db1565b60405180910390f35b610452600480360381019061044d9190612d31565b611e92565b005b7f000000000000000000000000000000000000000000000000000000000000000081565b60006020528060005260406000206000915090508060000154908060010160009054906101000a900473ffffffffffffffffffffffffffffffffffffffff16908060020154908060030160009054906101000a900473ffffffffffffffffffffffffffffffffffffffff16908060040160009054906101000a900473ffffffffffffffffffffffffffffffffffffffff16908060050154905086565b7f000000000000000000000000000000000000000000000000000000000000000081565b7f000000000000000000000000000000000000000000000000000000000000000081565b600081806060019061056e9190612f20565b60009060049261058093929190612f8d565b9061058b919061300c565b9050600082806060019061059f9190612f20565b6004906024926105b193929190612f8d565b906105bc919061306b565b60001c905060008380606001906105d39190612f20565b6024906044926105e593929190612f8d565b906105f0919061306b565b60001c90507f00000000000000000000000000000000000000000000000000000000000000007bffffffffffffffffffffffffffffffffffffffffffffffffffffffff1916837bffffffffffffffffffffffffffffffffffffffffffffffffffffffff191614610695576040517f08c379a000000000000000000000000000000000000000000000000000000000815260040161068c90613127565b60405180910390fd5b60008060008473ffffffffffffffffffffffffffffffffffffffff1673ffffffffffffffffffffffffffffffffffffffff1681526020019081526020016000206040518060c0016040529081600082015481526020016001820160009054906101000a900473ffffffffffffffffffffffffffffffffffffffff1673ffffffffffffffffffffffffffffffffffffffff1673ffffffffffffffffffffffffffffffffffffffff168152602001600282015481526020016003820160009054906101000a900473ffffffffffffffffffffffffffffffffffffffff1673ffffffffffffffffffffffffffffffffffffffff1673ffffffffffffffffffffffffffffffffffffffff1681526020016004820160009054906101000a900473ffffffffffffffffffffffffffffffffffffffff1673ffffffffffffffffffffffffffffffffffffffff1673ffffffffffffffffffffffffffffffffffffffff168152602001600582015481525050905060008060008573ffffffffffffffffffffffffffffffffffffffff1673ffffffffffffffffffffffffffffffffffffffff1681526020019081526020016000206002015411610886576040517f08c379a000000000000000000000000000000000000000000000000000000000815260040161087d90613193565b60405180910390fd5b426000808573ffffffffffffffffffffffffffffffffffffffff1673ffffffffffffffffffffffffffffffffffffffff1681526020019081526020016000206000015411610909576040517f08c379a0000000000000000000000000000000000000000000000000000000008152600401610900906131ff565b60405180910390fd5b7f000000000000000000000000000000000000000000000000000000000000000073ffffffffffffffffffffffffffffffffffffffff16816020015173ffffffffffffffffffffffffffffffffffffffff161461099b576040517f08c379a00000000000000000000000000000000000000000000000000000000081526004016109929061326b565b60405180910390fd5b8273ffffffffffffffffffffffffffffffffffffffff166109bb83611d9d565b73ffffffffffffffffffffffffffffffffffffffff1614610a11576040517f08c379a0000000000000000000000000000000000000000000000000000000008152600401610a08906132d7565b60405180910390fd5b5050505050565b6000610a226124e0565b610a2c8484612557565b9050610a3b84602001356128c4565b610a44826128c7565b9392505050565b60008060008373ffffffffffffffffffffffffffffffffffffffff1673ffffffffffffffffffffffffffffffffffffffff1681526020019081526020016000206002015411610acf576040517f08c379a0000000000000000000000000000000000000000000000000000000008152600401610ac690613193565b60405180910390fd5b426000808373ffffffffffffffffffffffffffffffffffffffff1673ffffffffffffffffffffffffffffffffffffffff168152602001908152602001600020600001541115610b53576040517f08c379a0000000000000000000000000000000000000000000000000000000008152600401610b4a90613343565b60405180910390fd5b60008060008373ffffffffffffffffffffffffffffffffffffffff1673ffffffffffffffffffffffffffffffffffffffff1681526020019081526020016000206040518060c0016040529081600082015481526020016001820160009054906101000a900473ffffffffffffffffffffffffffffffffffffffff1673ffffffffffffffffffffffffffffffffffffffff1673ffffffffffffffffffffffffffffffffffffffff168152602001600282015481526020016003820160009054906101000a900473ffffffffffffffffffffffffffffffffffffffff1673ffffffffffffffffffffffffffffffffffffffff1673ffffffffffffffffffffffffffffffffffffffff1681526020016004820160009054906101000a900473ffffffffffffffffffffffffffffffffffffffff1673ffffffffffffffffffffffffffffffffffffffff1673ffffffffffffffffffffffffffffffffffffffff16815260200160058201548152505090507f000000000000000000000000000000000000000000000000000000000000000073ffffffffffffffffffffffffffffffffffffffff16816020015173ffffffffffffffffffffffffffffffffffffffff1603610d6b57806060015173ffffffffffffffffffffffffffffffffffffffff166108fc82604001519081150290604051600060405180830381858888f19350505050158015610d65573d6000803e3d6000fd5b50610e05565b6000816020015190508073ffffffffffffffffffffffffffffffffffffffff1663a9059cbb836060015184604001516040518363ffffffff1660e01b8152600401610db7929190613384565b6020604051808303816000875af1158015610dd6573d6000803e3d6000fd5b505050506040513d601f19601f82011682018060405250810190610dfa91906133e5565b610e0357600080fd5b505b8173ffffffffffffffffffffffffffffffffffffffff167f0c36ba37282164e86020ce85f921bc1614b495edb4d3925de9b5b55f2c1bce4a60405160405180910390a26000808373ffffffffffffffffffffffffffffffffffffffff1673ffffffffffffffffffffffffffffffffffffffff1681526020019081526020016000206000808201600090556001820160006101000a81549073ffffffffffffffffffffffffffffffffffffffff021916905560028201600090556003820160006101000a81549073ffffffffffffffffffffffffffffffffffffffff02191690556004820160006101000a81549073ffffffffffffffffffffffffffffffffffffffff0219169055600582016000905550505050565b600080600080610f2985611c23565b9150915073__$a7f515f87d6f6cd1e35111d553ac002116$__63bb8c256a888885856040518563ffffffff1660e01b8152600401610f6a9493929190613421565b6040805180830381865af4158015610f86573d6000803e3d6000fd5b505050506040513d601f19601f82011682018060405250810190610faa919061347b565b935093505050935093915050565b6000610fc48787611827565b905060008060008373ffffffffffffffffffffffffffffffffffffffff1673ffffffffffffffffffffffffffffffffffffffff168152602001908152602001600020600201541461104a576040517f08c379a000000000000000000000000000000000000000000000000000000000815260040161104190613507565b60405180910390fd5b42841161108c576040517f08c379a000000000000000000000000000000000000000000000000000000000815260040161108390613599565b60405180910390fd5b7f000000000000000000000000000000000000000000000000000000000000000073ffffffffffffffffffffffffffffffffffffffff168373ffffffffffffffffffffffffffffffffffffffff160361111a576040517f08c379a00000000000000000000000000000000000000000000000000000000081526004016111119061362b565b60405180910390fd5b6000341461115d576040517f08c379a0000000000000000000000000000000000000000000000000000000008152600401611154906136bd565b60405180910390fd5b600082116111a0576040517f08c379a000000000000000000000000000000000000000000000000000000000815260040161119790613729565b60405180910390fd5b6000839050828173ffffffffffffffffffffffffffffffffffffffff1663dd62ed3e33306040518363ffffffff1660e01b81526004016111e1929190613749565b602060405180830381865afa1580156111fe573d6000803e3d6000fd5b505050506040513d601f19601f820116820180604052508101906112229190613772565b1015611263576040517f08c379a000000000000000000000000000000000000000000000000000000000815260040161125a906137eb565b60405180910390fd5b8073ffffffffffffffffffffffffffffffffffffffff166323b872dd3330866040518463ffffffff1660e01b81526004016112a09392919061380b565b6020604051808303816000875af11580156112bf573d6000803e3d6000fd5b505050506040513d601f19601f820116820180604052508101906112e391906133e5565b611322576040517f08c379a00000000000000000000000000000000000000000000000000000000081526004016113199061388e565b60405180910390fd5b60006040518060c001604052808781526020018673ffffffffffffffffffffffffffffffffffffffff1681526020018581526020013373ffffffffffffffffffffffffffffffffffffffff1681526020018873ffffffffffffffffffffffffffffffffffffffff1681526020016509184e72a0008152509050806000808573ffffffffffffffffffffffffffffffffffffffff1673ffffffffffffffffffffffffffffffffffffffff1681526020019081526020016000206000820151816000015560208201518160010160006101000a81548173ffffffffffffffffffffffffffffffffffffffff021916908373ffffffffffffffffffffffffffffffffffffffff1602179055506040820151816002015560608201518160030160006101000a81548173ffffffffffffffffffffffffffffffffffffffff021916908373ffffffffffffffffffffffffffffffffffffffff16021790555060808201518160040160006101000a81548173ffffffffffffffffffffffffffffffffffffffff021916908373ffffffffffffffffffffffffffffffffffffffff16021790555060a082015181600501559050508673ffffffffffffffffffffffffffffffffffffffff163373ffffffffffffffffffffffffffffffffffffffff168473ffffffffffffffffffffffffffffffffffffffff167f0fd721862391d6a2d7f510b77eeb0c6becf9e25a100fb8d3902432647aade2dd60405160405180910390a4505050505050505050565b6115546124e0565b60008060008473ffffffffffffffffffffffffffffffffffffffff1673ffffffffffffffffffffffffffffffffffffffff1681526020019081526020016000206040518060c0016040529081600082015481526020016001820160009054906101000a900473ffffffffffffffffffffffffffffffffffffffff1673ffffffffffffffffffffffffffffffffffffffff1673ffffffffffffffffffffffffffffffffffffffff168152602001600282015481526020016003820160009054906101000a900473ffffffffffffffffffffffffffffffffffffffff1673ffffffffffffffffffffffffffffffffffffffff1673ffffffffffffffffffffffffffffffffffffffff1681526020016004820160009054906101000a900473ffffffffffffffffffffffffffffffffffffffff1673ffffffffffffffffffffffffffffffffffffffff1673ffffffffffffffffffffffffffffffffffffffff1681526020016005820154815250509050806080015173ffffffffffffffffffffffffffffffffffffffff166108fc82604001519081150290604051600060405180830381858888f1935050505015801561170f573d6000803e3d6000fd5b50818373ffffffffffffffffffffffffffffffffffffffff167f684222b0069d4a2e5e0d986611cc5182d543904c4e4264bf770d4e51faefc82260405160405180910390a36000808473ffffffffffffffffffffffffffffffffffffffff1673ffffffffffffffffffffffffffffffffffffffff1681526020019081526020016000206000808201600090556001820160006101000a81549073ffffffffffffffffffffffffffffffffffffffff021916905560028201600090556003820160006101000a81549073ffffffffffffffffffffffffffffffffffffffff02191690556004820160006101000a81549073ffffffffffffffffffffffffffffffffffffffff021916905560058201600090555050505050565b60008073ffffffffffffffffffffffffffffffffffffffff84846040516020016118529291906138cf565b6040516020818303038152906040528051906020012060001c1690508091505092915050565b60006118848585611827565b905060008060008373ffffffffffffffffffffffffffffffffffffffff1673ffffffffffffffffffffffffffffffffffffffff168152602001908152602001600020600201541461190a576040517f08c379a000000000000000000000000000000000000000000000000000000000815260040161190190613507565b60405180910390fd5b42821161194c576040517f08c379a000000000000000000000000000000000000000000000000000000000815260040161194390613599565b60405180910390fd5b66038d7ea4c680003414806119675750662386f26fc1000034145b80611979575067016345785d8a000034145b6119b8576040517f08c379a00000000000000000000000000000000000000000000000000000000081526004016119af90613947565b60405180910390fd5b60006040518060c001604052808481526020017f000000000000000000000000000000000000000000000000000000000000000073ffffffffffffffffffffffffffffffffffffffff1681526020013481526020013373ffffffffffffffffffffffffffffffffffffffff1681526020018573ffffffffffffffffffffffffffffffffffffffff1681526020016509184e72a0008152509050806000808473ffffffffffffffffffffffffffffffffffffffff1673ffffffffffffffffffffffffffffffffffffffff1681526020019081526020016000206000820151816000015560208201518160010160006101000a81548173ffffffffffffffffffffffffffffffffffffffff021916908373ffffffffffffffffffffffffffffffffffffffff1602179055506040820151816002015560608201518160030160006101000a81548173ffffffffffffffffffffffffffffffffffffffff021916908373ffffffffffffffffffffffffffffffffffffffff16021790555060808201518160040160006101000a81548173ffffffffffffffffffffffffffffffffffffffff021916908373ffffffffffffffffffffffffffffffffffffffff16021790555060a082015181600501559050508373ffffffffffffffffffffffffffffffffffffffff163373ffffffffffffffffffffffffffffffffffffffff168373ffffffffffffffffffffffffffffffffffffffff167f0fd721862391d6a2d7f510b77eeb0c6becf9e25a100fb8d3902432647aade2dd60405160405180910390a4505050505050565b7f000000000000000000000000000000000000000000000000000000000000000081565b60008073__$a7f515f87d6f6cd1e35111d553ac002116$__638081a1e77f00000000000000000000000000000000000000000000000000000000000000007f0000000000000000000000000000000000000000000000000000000000000000866040518463ffffffff1660e01b8152600401611ca193929190613967565b6040805180830381865af4158015611cbd573d6000803e3d6000fd5b505050506040513d601f19601f82011682018060405250810190611ce1919061347b565b91509150915091565b60007f0000000000000000000000000000000000000000000000000000000000000000905090565b6000611d1c611cea565b73ffffffffffffffffffffffffffffffffffffffff166335567e1a3060006040518363ffffffff1660e01b8152600401611d579291906139fd565b602060405180830381865afa158015611d74573d6000803e3d6000fd5b505050506040513d601f19601f82011682018060405250810190611d989190613772565b905090565b600080600160007f00000000000000000000000000000000000000000000000000000000000000007f000000000000000000000000000000000000000000000000000000000000000060001b7f000000000000000000000000000000000000000000000000000000000000000080611e1857611e17613a26565b5b7f0000000000000000000000000000000000000000000000000000000000000000880960001b60405160008152602001604052604051611e5b9493929190613aa2565b6020604051602081039080840390855afa158015611e7d573d6000803e3d6000fd5b50505060206040510351905080915050919050565b60008060008473ffffffffffffffffffffffffffffffffffffffff1673ffffffffffffffffffffffffffffffffffffffff1681526020019081526020016000206002015411611f16576040517f08c379a0000000000000000000000000000000000000000000000000000000008152600401611f0d90613193565b60405180910390fd5b426000808473ffffffffffffffffffffffffffffffffffffffff1673ffffffffffffffffffffffffffffffffffffffff1681526020019081526020016000206000015411611f99576040517f08c379a0000000000000000000000000000000000000000000000000000000008152600401611f90906131ff565b60405180910390fd5b8173ffffffffffffffffffffffffffffffffffffffff16611fb982611d9d565b73ffffffffffffffffffffffffffffffffffffffff161461200f576040517f08c379a0000000000000000000000000000000000000000000000000000000008152600401612006906132d7565b60405180910390fd5b60008060008473ffffffffffffffffffffffffffffffffffffffff1673ffffffffffffffffffffffffffffffffffffffff1681526020019081526020016000206040518060c0016040529081600082015481526020016001820160009054906101000a900473ffffffffffffffffffffffffffffffffffffffff1673ffffffffffffffffffffffffffffffffffffffff1673ffffffffffffffffffffffffffffffffffffffff168152602001600282015481526020016003820160009054906101000a900473ffffffffffffffffffffffffffffffffffffffff1673ffffffffffffffffffffffffffffffffffffffff1673ffffffffffffffffffffffffffffffffffffffff1681526020016004820160009054906101000a900473ffffffffffffffffffffffffffffffffffffffff1673ffffffffffffffffffffffffffffffffffffffff1673ffffffffffffffffffffffffffffffffffffffff16815260200160058201548152505090507f000000000000000000000000000000000000000000000000000000000000000073ffffffffffffffffffffffffffffffffffffffff16816020015173ffffffffffffffffffffffffffffffffffffffff160361229357806080015173ffffffffffffffffffffffffffffffffffffffff166108fc8260a0015183604001516122059190613b16565b9081150290604051600060405180830381858888f19350505050158015612230573d6000803e3d6000fd5b5060008160a00151111561228e57806060015173ffffffffffffffffffffffffffffffffffffffff166108fc8260a001519081150290604051600060405180830381858888f1935050505015801561228c573d6000803e3d6000fd5b505b6123c9565b8060a001513410156122da576040517f08c379a00000000000000000000000000000000000000000000000000000000081526004016122d190613b96565b60405180910390fd5b6000816020015190508073ffffffffffffffffffffffffffffffffffffffff1663a9059cbb836080015184604001516040518363ffffffff1660e01b8152600401612326929190613384565b6020604051808303816000875af1158015612345573d6000803e3d6000fd5b505050506040513d601f19601f8201168201806040525081019061236991906133e5565b61237257600080fd5b60003411156123c757816060015173ffffffffffffffffffffffffffffffffffffffff166108fc349081150290604051600060405180830381858888f193505050501580156123c5573d6000803e3d6000fd5b505b505b818373ffffffffffffffffffffffffffffffffffffffff167f684222b0069d4a2e5e0d986611cc5182d543904c4e4264bf770d4e51faefc82260405160405180910390a36000808473ffffffffffffffffffffffffffffffffffffffff1673ffffffffffffffffffffffffffffffffffffffff1681526020019081526020016000206000808201600090556001820160006101000a81549073ffffffffffffffffffffffffffffffffffffffff021916905560028201600090556003820160006101000a81549073ffffffffffffffffffffffffffffffffffffffff02191690556004820160006101000a81549073ffffffffffffffffffffffffffffffffffffffff021916905560058201600090555050505050565b6124e8611cea565b73ffffffffffffffffffffffffffffffffffffffff163373ffffffffffffffffffffffffffffffffffffffff1614612555576040517f08c379a000000000000000000000000000000000000000000000000000000000815260040161254c90613c02565b60405180910390fd5b565b60008060008085806060019061256d9190612f20565b81019061257a9190613c4e565b9250925092507f00000000000000000000000000000000000000000000000000000000000000007bffffffffffffffffffffffffffffffffffffffffffffffffffffffff1916837bffffffffffffffffffffffffffffffffffffffffffffffffffffffff1916146125f157600193505050506128be565b60008060008473ffffffffffffffffffffffffffffffffffffffff1673ffffffffffffffffffffffffffffffffffffffff1681526020019081526020016000206040518060c0016040529081600082015481526020016001820160009054906101000a900473ffffffffffffffffffffffffffffffffffffffff1673ffffffffffffffffffffffffffffffffffffffff1673ffffffffffffffffffffffffffffffffffffffff168152602001600282015481526020016003820160009054906101000a900473ffffffffffffffffffffffffffffffffffffffff1673ffffffffffffffffffffffffffffffffffffffff1673ffffffffffffffffffffffffffffffffffffffff1681526020016004820160009054906101000a900473ffffffffffffffffffffffffffffffffffffffff1673ffffffffffffffffffffffffffffffffffffffff1673ffffffffffffffffffffffffffffffffffffffff168152602001600582015481525050905060008060008573ffffffffffffffffffffffffffffffffffffffff1673ffffffffffffffffffffffffffffffffffffffff16815260200190815260200160002060020154036127b45760019450505050506128be565b426000808573ffffffffffffffffffffffffffffffffffffffff1673ffffffffffffffffffffffffffffffffffffffff16815260200190815260200160002060000154116128095760019450505050506128be565b7f000000000000000000000000000000000000000000000000000000000000000073ffffffffffffffffffffffffffffffffffffffff16816020015173ffffffffffffffffffffffffffffffffffffffff161461286d5760019450505050506128be565b8273ffffffffffffffffffffffffffffffffffffffff1661288d83611d9d565b73ffffffffffffffffffffffffffffffffffffffff16146128b55760019450505050506128be565b60009450505050505b92915050565b50565b600081146129605760003373ffffffffffffffffffffffffffffffffffffffff16827fffffffffffffffffffffffffffffffffffffffffffffffffffffffffffffffff9060405161291790613cd2565b600060405180830381858888f193505050503d8060008114612955576040519150601f19603f3d011682016040523d82523d6000602084013e61295a565b606091505b50509050505b50565b6000819050919050565b61297681612963565b82525050565b6000602082019050612991600083018461296d565b92915050565b600080fd5b600080fd5b600073ffffffffffffffffffffffffffffffffffffffff82169050919050565b60006129cc826129a1565b9050919050565b6129dc816129c1565b81146129e757600080fd5b50565b6000813590506129f9816129d3565b92915050565b600060208284031215612a1557612a14612997565b5b6000612a23848285016129ea565b91505092915050565b612a35816129c1565b82525050565b6000612a46826129a1565b9050919050565b612a5681612a3b565b82525050565b600060c082019050612a71600083018961296d565b612a7e6020830188612a2c565b612a8b604083018761296d565b612a986060830186612a4d565b612aa56080830185612a4d565b612ab260a083018461296d565b979650505050505050565b600080fd5b60006101608284031215612ad957612ad8612abd565b5b81905092915050565b600060208284031215612af857612af7612997565b5b600082013567ffffffffffffffff811115612b1657612b1561299c565b5b612b2284828501612ac2565b91505092915050565b6000819050919050565b612b3e81612b2b565b8114612b4957600080fd5b50565b600081359050612b5b81612b35565b92915050565b612b6a81612963565b8114612b7557600080fd5b50565b600081359050612b8781612b61565b92915050565b600080600060608486031215612ba657612ba5612997565b5b600084013567ffffffffffffffff811115612bc457612bc361299c565b5b612bd086828701612ac2565b9350506020612be186828701612b4c565b9250506040612bf286828701612b78565b9150509250925092565b600080600060608486031215612c1557612c14612997565b5b6000612c2386828701612b78565b9350506020612c3486828701612b78565b9250506040612c4586828701612b78565b9150509250925092565b6000604082019050612c64600083018561296d565b612c71602083018461296d565b9392505050565b612c8181612a3b565b8114612c8c57600080fd5b50565b600081359050612c9e81612c78565b92915050565b60008060008060008060c08789031215612cc157612cc0612997565b5b6000612ccf89828a01612b78565b9650506020612ce089828a01612b78565b9550506040612cf189828a01612c8f565b9450506060612d0289828a01612b78565b9350506080612d1389828a016129ea565b92505060a0612d2489828a01612b78565b9150509295509295509295565b60008060408385031215612d4857612d47612997565b5b6000612d56858286016129ea565b9250506020612d6785828601612b78565b9150509250929050565b60008060408385031215612d8857612d87612997565b5b6000612d9685828601612b78565b9250506020612da785828601612b78565b9150509250929050565b6000602082019050612dc66000830184612a2c565b92915050565b60008060008060808587031215612de657612de5612997565b5b6000612df487828801612b78565b9450506020612e0587828801612b78565b9350506040612e1687828801612c8f565b9250506060612e2787828801612b78565b91505092959194509250565b600060ff82169050919050565b612e4981612e33565b82525050565b6000602082019050612e646000830184612e40565b92915050565b600060208284031215612e8057612e7f612997565b5b6000612e8e84828501612b78565b91505092915050565b6000819050919050565b6000612ebc612eb7612eb2846129a1565b612e97565b6129a1565b9050919050565b6000612ece82612ea1565b9050919050565b6000612ee082612ec3565b9050919050565b612ef081612ed5565b82525050565b6000602082019050612f0b6000830184612ee7565b92915050565b600080fd5b600080fd5b600080fd5b60008083356001602003843603038112612f3d57612f3c612f11565b5b80840192508235915067ffffffffffffffff821115612f5f57612f5e612f16565b5b602083019250600182023603831315612f7b57612f7a612f1b565b5b509250929050565b600080fd5b600080fd5b60008085851115612fa157612fa0612f83565b5b83861115612fb257612fb1612f88565b5b6001850283019150848603905094509492505050565b600082905092915050565b60007fffffffff0000000000000000000000000000000000000000000000000000000082169050919050565b600082821b905092915050565b60006130188383612fc8565b826130238135612fd3565b925060048210156130635761305e7fffffffff0000000000000000000000000000000000000000000000000000000083600403600802612fff565b831692505b505092915050565b60006130778383612fc8565b826130828135612b2b565b925060208210156130c2576130bd7fffffffffffffffffffffffffffffffffffffffffffffffffffffffffffffffff83602003600802612fff565b831692505b505092915050565b600082825260208201905092915050565b7f496e76616c69642073656c6563746f722e000000000000000000000000000000600082015250565b60006131116011836130ca565b915061311c826130db565b602082019050919050565b6000602082019050818103600083015261314081613104565b9050919050565b7f5377617020686173206e6f74206265656e206f70656e65642e00000000000000600082015250565b600061317d6019836130ca565b915061318882613147565b602082019050919050565b600060208201905081810360008301526131ac81613170565b9050919050565b7f537761702068617320657870697265642e000000000000000000000000000000600082015250565b60006131e96011836130ca565b91506131f4826131b3565b602082019050919050565b60006020820190508181036000830152613218816131dc565b9050919050565b7f546f6b656e20636f6e7472616374206973206e6f74204554482e000000000000600082015250565b6000613255601a836130ca565b91506132608261321f565b602082019050919050565b6000602082019050818103600083015261328481613248565b9050919050565b7f566572696669636174696f6e206661696c65642e000000000000000000000000600082015250565b60006132c16014836130ca565b91506132cc8261328b565b602082019050919050565b600060208201905081810360008301526132f0816132b4565b9050919050565b7f5377617020686173206e6f7420657870697265642e0000000000000000000000600082015250565b600061332d6015836130ca565b9150613338826132f7565b602082019050919050565b6000602082019050818103600083015261335c81613320565b9050919050565b600061336e82612ec3565b9050919050565b61337e81613363565b82525050565b60006040820190506133996000830185613375565b6133a6602083018461296d565b9392505050565b60008115159050919050565b6133c2816133ad565b81146133cd57600080fd5b50565b6000815190506133df816133b9565b92915050565b6000602082840312156133fb576133fa612997565b5b6000613409848285016133d0565b91505092915050565b61341b81612963565b82525050565b60006080820190506134366000830187613412565b6134436020830186613412565b6134506040830185613412565b61345d6060830184613412565b95945050505050565b60008151905061347581612b61565b92915050565b6000806040838503121561349257613491612997565b5b60006134a085828601613466565b92505060206134b185828601613466565b9150509250929050565b7f5377617020686173206265656e20616c7265616479206f70656e65642e000000600082015250565b60006134f1601d836130ca565b91506134fc826134bb565b602082019050919050565b60006020820190508181036000830152613520816134e4565b9050919050565b7f54696d656c6f636b2076616c7565206d75737420626520696e2074686520667560008201527f747572652e000000000000000000000000000000000000000000000000000000602082015250565b60006135836025836130ca565b915061358e82613527565b604082019050919050565b600060208201905081810360008301526135b281613576565b9050919050565b7f5468652061646472657373206973206e6f7420612076616c696420455243323060008201527f20746f6b656e2e00000000000000000000000000000000000000000000000000602082015250565b60006136156027836130ca565b9150613620826135b9565b604082019050919050565b6000602082019050818103600083015261364481613608565b9050919050565b7f43616e6e6f742073656e6420455448207768656e207377617070696e6720616e60008201527f20455243323020746f6b656e2e00000000000000000000000000000000000000602082015250565b60006136a7602d836130ca565b91506136b28261364b565b604082019050919050565b600060208201905081810360008301526136d68161369a565b9050919050565b7f56616c7565206d757374206265206c6172676572207468616e20302e00000000600082015250565b6000613713601c836130ca565b915061371e826136dd565b602082019050919050565b6000602082019050818103600083015261374281613706565b9050919050565b600060408201905061375e6000830185612a2c565b61376b6020830184612a2c565b9392505050565b60006020828403121561378857613787612997565b5b600061379684828501613466565b91505092915050565b7f4e6f7420656e6f7567682062616c616e63652e00000000000000000000000000600082015250565b60006137d56013836130ca565b91506137e08261379f565b602082019050919050565b60006020820190508181036000830152613804816137c8565b9050919050565b60006060820190506138206000830186612a2c565b61382d6020830185612a2c565b61383a604083018461296d565b949350505050565b7f5472616e73666572206661696c65642e00000000000000000000000000000000600082015250565b60006138786010836130ca565b915061388382613842565b602082019050919050565b600060208201905081810360008301526138a78161386b565b9050919050565b6000819050919050565b6138c96138c482612963565b6138ae565b82525050565b60006138db82856138b8565b6020820191506138eb82846138b8565b6020820191508190509392505050565b7f496e76616c6964206d6573736167652076616c75652e00000000000000000000600082015250565b60006139316016836130ca565b915061393c826138fb565b602082019050919050565b6000602082019050818103600083015261396081613924565b9050919050565b600060608201905061397c6000830186613412565b6139896020830185613412565b6139966040830184613412565b949350505050565b6000819050919050565b600077ffffffffffffffffffffffffffffffffffffffffffffffff82169050919050565b60006139e76139e26139dd8461399e565b612e97565b6139a8565b9050919050565b6139f7816139cc565b82525050565b6000604082019050613a126000830185612a2c565b613a1f60208301846139ee565b9392505050565b7f4e487b7100000000000000000000000000000000000000000000000000000000600052601260045260246000fd5b60008160001b9050919050565b6000613a7d613a78613a738461399e565b613a55565b612b2b565b9050919050565b613a8d81613a62565b82525050565b613a9c81612b2b565b82525050565b6000608082019050613ab76000830187613a84565b613ac46020830186612e40565b613ad16040830185613a93565b613ade6060830184613a93565b95945050505050565b7f4e487b7100000000000000000000000000000000000000000000000000000000600052601160045260246000fd5b6000613b2182612963565b9150613b2c83612963565b9250828203905081811115613b4457613b43613ae7565b5b92915050565b7f496e73756666696369656e74206665652e000000000000000000000000000000600082015250565b6000613b806011836130ca565b9150613b8b82613b4a565b602082019050919050565b60006020820190508181036000830152613baf81613b73565b9050919050565b7f6163636f756e743a206e6f742066726f6d20456e747279506f696e7400000000600082015250565b6000613bec601c836130ca565b9150613bf782613bb6565b602082019050919050565b60006020820190508181036000830152613c1b81613bdf565b9050919050565b613c2b81612fd3565b8114613c3657600080fd5b50565b600081359050613c4881613c22565b92915050565b600080600060608486031215613c6757613c66612997565b5b6000613c7586828701613c39565b9350506020613c8686828701612c8f565b9250506040613c9786828701612b78565b9150509250925092565b600081905092915050565b50565b6000613cbc600083613ca1565b9150613cc782613cac565b600082019050919050565b6000613cdd82613caf565b915081905091905056fea2646970667358221220f45c4e5a730849cb60bce86e5d6e5e38b769f8371f4c74bd1e239b1c64ad458264736f6c63430008120033",
    "linkReferences": {
        "contracts/ECCUtils.sol": {
            "ECCUtils": [
                {
                    "length": 20,
                    "start": 4595
                },
                {
                    "length": 20,
                    "start": 7916
                }
            ]
        }
    },
    "deployedLinkReferences": {
        "contracts/ECCUtils.sol": {
            "ECCUtils": [
                {
                    "length": 20,
                    "start": 3887
                },
                {
                    "length": 20,
                    "start": 7208
                }
            ]
        }
    }
}